{
  "abi": [
    {
      "type": "constructor",
      "inputs": [
        {
          "name": "minUpdateTime",
          "type": "uint256",
          "internalType": "uint256"
        },
        {
          "name": "protocolFeeShare",
          "type": "uint256",
          "internalType": "uint256"
        },
        {
          "name": "defaultFeeA",
          "type": "uint256",
          "internalType": "uint256"
        },
        {
          "name": "defaultFeeB",
          "type": "uint256",
          "internalType": "uint256"
        },
        {
          "name": "quoteToken",
          "type": "address",
          "internalType": "address"
        },
        {
          "name": "marketImplementation",
          "type": "address",
          "internalType": "address"
        },
        {
          "name": "tokenImplementation",
          "type": "address",
          "internalType": "address"
        },
        {
          "name": "admin",
          "type": "address",
          "internalType": "address"
        },
        {
          "name": "wnative",
          "type": "address",
          "internalType": "address"
        }
      ],
      "stateMutability": "nonpayable"
    },
    {
      "type": "function",
      "name": "DEFAULT_ADMIN_ROLE",
      "inputs": [],
      "outputs": [
        {
          "name": "",
          "type": "bytes32",
          "internalType": "bytes32"
        }
      ],
      "stateMutability": "view"
    },
    {
      "type": "function",
      "name": "KOTM_COLLECTOR_ROLE",
      "inputs": [],
      "outputs": [
        {
          "name": "",
          "type": "bytes32",
          "internalType": "bytes32"
        }
      ],
      "stateMutability": "view"
    },
    {
      "type": "function",
      "name": "KOTM_FEE_RECIPIENT",
      "inputs": [],
      "outputs": [
        {
          "name": "",
          "type": "address",
          "internalType": "address"
        }
      ],
      "stateMutability": "view"
    },
    {
      "type": "function",
      "name": "MARKET_MIGRATOR_ROLE",
      "inputs": [],
      "outputs": [
        {
          "name": "",
          "type": "bytes32",
          "internalType": "bytes32"
        }
      ],
      "stateMutability": "view"
    },
    {
      "type": "function",
      "name": "PROTOCOL_FEE_COLLECTOR_ROLE",
      "inputs": [],
      "outputs": [
        {
          "name": "",
          "type": "bytes32",
          "internalType": "bytes32"
        }
      ],
      "stateMutability": "view"
    },
    {
      "type": "function",
      "name": "PROTOCOL_FEE_RECIPIENT",
      "inputs": [],
      "outputs": [
        {
          "name": "",
          "type": "address",
          "internalType": "address"
        }
      ],
      "stateMutability": "view"
    },
    {
      "type": "function",
      "name": "WNATIVE",
      "inputs": [],
      "outputs": [
        {
          "name": "",
          "type": "address",
          "internalType": "address"
        }
      ],
      "stateMutability": "view"
    },
    {
      "type": "function",
      "name": "acceptMarketCreator",
      "inputs": [
        {
          "name": "market",
          "type": "address",
          "internalType": "address"
        }
      ],
      "outputs": [
        {
          "name": "",
          "type": "bool",
          "internalType": "bool"
        }
      ],
      "stateMutability": "nonpayable"
    },
    {
      "type": "function",
      "name": "collect",
      "inputs": [
        {
          "name": "token",
          "type": "address",
          "internalType": "address"
        },
        {
          "name": "account",
          "type": "address",
          "internalType": "address"
        },
        {
          "name": "recipient",
          "type": "address",
          "internalType": "address"
        },
        {
          "name": "amount",
          "type": "uint256",
          "internalType": "uint256"
        }
      ],
      "outputs": [
        {
          "name": "",
          "type": "bool",
          "internalType": "bool"
        }
      ],
      "stateMutability": "nonpayable"
    },
    {
      "type": "function",
      "name": "createMarket",
      "inputs": [
        {
          "name": "name",
          "type": "string",
          "internalType": "string"
        },
        {
          "name": "symbol",
          "type": "string",
          "internalType": "string"
        },
        {
          "name": "quoteToken",
          "type": "address",
          "internalType": "address"
        },
        {
          "name": "feeRecipient",
          "type": "address",
          "internalType": "address"
        },
        {
          "name": "amountQuoteIn",
          "type": "uint256",
          "internalType": "uint256"
        },
        {
          "name": "minAmountBaseOut",
          "type": "uint256",
          "internalType": "uint256"
        }
      ],
      "outputs": [
        {
          "name": "token",
          "type": "address",
          "internalType": "address"
        },
        {
          "name": "market",
          "type": "address",
          "internalType": "address"
        },
        {
          "name": "amountBaseOut",
          "type": "uint256",
          "internalType": "uint256"
        }
      ],
      "stateMutability": "payable"
    },
    {
      "type": "function",
      "name": "getDefaultFees",
      "inputs": [],
      "outputs": [
        {
          "name": "",
          "type": "uint256",
          "internalType": "uint256"
        },
        {
          "name": "",
          "type": "uint256",
          "internalType": "uint256"
        }
      ],
      "stateMutability": "view"
    },
    {
      "type": "function",
      "name": "getMarketAt",
      "inputs": [
        {
          "name": "index",
          "type": "uint256",
          "internalType": "uint256"
        }
      ],
      "outputs": [
        {
          "name": "",
          "type": "address",
          "internalType": "address"
        }
      ],
      "stateMutability": "view"
    },
    {
      "type": "function",
      "name": "getMarketByCreatorAt",
      "inputs": [
        {
          "name": "creator",
          "type": "address",
          "internalType": "address"
        },
        {
          "name": "index",
          "type": "uint256",
          "internalType": "uint256"
        }
      ],
      "outputs": [
        {
          "name": "",
          "type": "address",
          "internalType": "address"
        }
      ],
      "stateMutability": "view"
    },
    {
      "type": "function",
      "name": "getMarketByCreatorLength",
      "inputs": [
        {
          "name": "creator",
          "type": "address",
          "internalType": "address"
        }
      ],
      "outputs": [
        {
          "name": "",
          "type": "uint256",
          "internalType": "uint256"
        }
      ],
      "stateMutability": "view"
    },
    {
      "type": "function",
      "name": "getMarketDetails",
      "inputs": [
        {
          "name": "market",
          "type": "address",
          "internalType": "address"
        }
      ],
      "outputs": [
        {
          "name": "",
          "type": "tuple",
          "internalType": "struct ITMFactory.MarketDetails",
          "components": [
            {
              "name": "initialized",
              "type": "bool",
              "internalType": "bool"
            },
            {
              "name": "lastFeeRecipientUpdate",
              "type": "uint88",
              "internalType": "uint88"
            },
            {
              "name": "feeRecipient",
              "type": "address",
              "internalType": "address"
            },
            {
              "name": "creator",
              "type": "address",
              "internalType": "address"
            },
            {
              "name": "pendingCreator",
              "type": "address",
              "internalType": "address"
            }
          ]
        }
      ],
      "stateMutability": "view"
    },
    {
      "type": "function",
      "name": "getMarketImplementation",
      "inputs": [
        {
          "name": "quoteToken",
          "type": "address",
          "internalType": "address"
        }
      ],
      "outputs": [
        {
          "name": "",
          "type": "address",
          "internalType": "address"
        }
      ],
      "stateMutability": "view"
    },
    {
      "type": "function",
      "name": "getMarketOf",
      "inputs": [
        {
          "name": "token",
          "type": "address",
          "internalType": "address"
        }
      ],
      "outputs": [
        {
          "name": "",
          "type": "address",
          "internalType": "address"
        }
      ],
      "stateMutability": "view"
    },
    {
      "type": "function",
      "name": "getMarketsLength",
      "inputs": [],
      "outputs": [
        {
          "name": "",
          "type": "uint256",
          "internalType": "uint256"
        }
      ],
      "stateMutability": "view"
    },
    {
      "type": "function",
      "name": "getMinUpdateTime",
      "inputs": [],
      "outputs": [
        {
          "name": "",
          "type": "uint256",
          "internalType": "uint256"
        }
      ],
      "stateMutability": "view"
    },
    {
      "type": "function",
      "name": "getProtocolFeeShare",
      "inputs": [],
      "outputs": [
        {
          "name": "",
          "type": "uint256",
          "internalType": "uint256"
        }
      ],
      "stateMutability": "view"
    },
    {
      "type": "function",
      "name": "getQuoteTokenAt",
      "inputs": [
        {
          "name": "index",
          "type": "uint256",
          "internalType": "uint256"
        }
      ],
      "outputs": [
        {
          "name": "",
          "type": "address",
          "internalType": "address"
        }
      ],
      "stateMutability": "view"
    },
    {
      "type": "function",
      "name": "getQuoteTokensLength",
      "inputs": [],
      "outputs": [
        {
          "name": "",
          "type": "uint256",
          "internalType": "uint256"
        }
      ],
      "stateMutability": "view"
    },
    {
      "type": "function",
      "name": "getRoleAdmin",
      "inputs": [
        {
          "name": "role",
          "type": "bytes32",
          "internalType": "bytes32"
        }
      ],
      "outputs": [
        {
          "name": "",
          "type": "bytes32",
          "internalType": "bytes32"
        }
      ],
      "stateMutability": "view"
    },
    {
      "type": "function",
      "name": "getTokenAt",
      "inputs": [
        {
          "name": "index",
          "type": "uint256",
          "internalType": "uint256"
        }
      ],
      "outputs": [
        {
          "name": "",
          "type": "address",
          "internalType": "address"
        }
      ],
      "stateMutability": "view"
    },
    {
      "type": "function",
      "name": "getTokenImplementation",
      "inputs": [],
      "outputs": [
        {
          "name": "",
          "type": "address",
          "internalType": "address"
        }
      ],
      "stateMutability": "view"
    },
    {
      "type": "function",
      "name": "getTokensLength",
      "inputs": [],
      "outputs": [
        {
          "name": "",
          "type": "uint256",
          "internalType": "uint256"
        }
      ],
      "stateMutability": "view"
    },
    {
      "type": "function",
      "name": "getUnclaimedFees",
      "inputs": [
        {
          "name": "token",
          "type": "address",
          "internalType": "address"
        },
        {
          "name": "account",
          "type": "address",
          "internalType": "address"
        }
      ],
      "outputs": [
        {
          "name": "",
          "type": "uint256",
          "internalType": "uint256"
        }
      ],
      "stateMutability": "view"
    },
    {
      "type": "function",
      "name": "grantRole",
      "inputs": [
        {
          "name": "role",
          "type": "bytes32",
          "internalType": "bytes32"
        },
        {
          "name": "account",
          "type": "address",
          "internalType": "address"
        }
      ],
      "outputs": [],
      "stateMutability": "nonpayable"
    },
    {
      "type": "function",
      "name": "hasRole",
      "inputs": [
        {
          "name": "role",
          "type": "bytes32",
          "internalType": "bytes32"
        },
        {
          "name": "account",
          "type": "address",
          "internalType": "address"
        }
      ],
      "outputs": [
        {
          "name": "",
          "type": "bool",
          "internalType": "bool"
        }
      ],
      "stateMutability": "view"
    },
    {
      "type": "function",
      "name": "initialize",
      "inputs": [
        {
          "name": "minUpdateTime",
          "type": "uint256",
          "internalType": "uint256"
        },
        {
          "name": "protocolFeeShare",
          "type": "uint256",
          "internalType": "uint256"
        },
        {
          "name": "defaultFeeA",
          "type": "uint256",
          "internalType": "uint256"
        },
        {
          "name": "defaultFeeB",
          "type": "uint256",
          "internalType": "uint256"
        },
        {
          "name": "quoteToken",
          "type": "address",
          "internalType": "address"
        },
        {
          "name": "marketImplementation",
          "type": "address",
          "internalType": "address"
        },
        {
          "name": "tokenImplementation",
          "type": "address",
          "internalType": "address"
        },
        {
          "name": "admin",
          "type": "address",
          "internalType": "address"
        }
      ],
      "outputs": [],
      "stateMutability": "nonpayable"
    },
    {
      "type": "function",
      "name": "migrateMarket",
      "inputs": [
        {
          "name": "market",
          "type": "address",
          "internalType": "address"
        },
        {
          "name": "recipient",
          "type": "address",
          "internalType": "address"
        }
      ],
      "outputs": [
        {
          "name": "amount0",
          "type": "uint256",
          "internalType": "uint256"
        },
        {
          "name": "amount1",
          "type": "uint256",
          "internalType": "uint256"
        }
      ],
      "stateMutability": "nonpayable"
    },
    {
      "type": "function",
      "name": "onFeeReceived",
      "inputs": [
        {
          "name": "token",
          "type": "address",
          "internalType": "address"
        },
        {
          "name": "amount",
          "type": "uint256",
          "internalType": "uint256"
        }
      ],
      "outputs": [
        {
          "name": "",
          "type": "bool",
          "internalType": "bool"
        }
      ],
      "stateMutability": "nonpayable"
    },
    {
      "type": "function",
      "name": "renounceRole",
      "inputs": [
        {
          "name": "role",
          "type": "bytes32",
          "internalType": "bytes32"
        },
        {
          "name": "callerConfirmation",
          "type": "address",
          "internalType": "address"
        }
      ],
      "outputs": [],
      "stateMutability": "nonpayable"
    },
    {
      "type": "function",
      "name": "revokeRole",
      "inputs": [
        {
          "name": "role",
          "type": "bytes32",
          "internalType": "bytes32"
        },
        {
          "name": "account",
          "type": "address",
          "internalType": "address"
        }
      ],
      "outputs": [],
      "stateMutability": "nonpayable"
    },
    {
      "type": "function",
      "name": "setDefaultFees",
      "inputs": [
        {
          "name": "defaultFeeA",
          "type": "uint256",
          "internalType": "uint256"
        },
        {
          "name": "defaultFeeB",
          "type": "uint256",
          "internalType": "uint256"
        }
      ],
      "outputs": [
        {
          "name": "",
          "type": "bool",
          "internalType": "bool"
        }
      ],
      "stateMutability": "nonpayable"
    },
    {
      "type": "function",
      "name": "setMarketImplementation",
      "inputs": [
        {
          "name": "quoteToken",
          "type": "address",
          "internalType": "address"
        },
        {
          "name": "marketImplementation",
          "type": "address",
          "internalType": "address"
        }
      ],
      "outputs": [
        {
          "name": "",
          "type": "bool",
          "internalType": "bool"
        }
      ],
      "stateMutability": "nonpayable"
    },
    {
      "type": "function",
      "name": "setMinUpdateTime",
      "inputs": [
        {
          "name": "minUpdateTime",
          "type": "uint256",
          "internalType": "uint256"
        }
      ],
      "outputs": [
        {
          "name": "",
          "type": "bool",
          "internalType": "bool"
        }
      ],
      "stateMutability": "nonpayable"
    },
    {
      "type": "function",
      "name": "setProtocolFeeShare",
      "inputs": [
        {
          "name": "protocolFeeShare",
          "type": "uint256",
          "internalType": "uint256"
        }
      ],
      "outputs": [
        {
          "name": "",
          "type": "bool",
          "internalType": "bool"
        }
      ],
      "stateMutability": "nonpayable"
    },
    {
      "type": "function",
      "name": "setTokenImplementation",
      "inputs": [
        {
          "name": "tokenImplementation",
          "type": "address",
          "internalType": "address"
        }
      ],
      "outputs": [
        {
          "name": "",
          "type": "bool",
          "internalType": "bool"
        }
      ],
      "stateMutability": "nonpayable"
    },
    {
      "type": "function",
      "name": "supportsInterface",
      "inputs": [
        {
          "name": "interfaceId",
          "type": "bytes4",
          "internalType": "bytes4"
        }
      ],
      "outputs": [
        {
          "name": "",
          "type": "bool",
          "internalType": "bool"
        }
      ],
      "stateMutability": "view"
    },
    {
      "type": "function",
      "name": "updateMarketDetails",
      "inputs": [
        {
          "name": "market",
          "type": "address",
          "internalType": "address"
        },
        {
          "name": "pendingCreator",
          "type": "address",
          "internalType": "address"
        },
        {
          "name": "feeRecipient",
          "type": "address",
          "internalType": "address"
        }
      ],
      "outputs": [
        {
          "name": "",
          "type": "bool",
          "internalType": "bool"
        }
      ],
      "stateMutability": "nonpayable"
    },
    {
      "type": "event",
      "name": "DefaultFeesSet",
      "inputs": [
        {
          "name": "sender",
          "type": "address",
          "indexed": true,
          "internalType": "address"
        },
        {
          "name": "defaultFeeA",
          "type": "uint256",
          "indexed": false,
          "internalType": "uint256"
        },
        {
          "name": "defaultFeeB",
          "type": "uint256",
          "indexed": false,
          "internalType": "uint256"
        }
      ],
      "anonymous": false
    },
    {
      "type": "event",
      "name": "FeeReceived",
      "inputs": [
        {
          "name": "market",
          "type": "address",
          "indexed": true,
          "internalType": "address"
        },
        {
          "name": "token",
          "type": "address",
          "indexed": true,
          "internalType": "address"
        },
        {
          "name": "feeRecipient",
          "type": "address",
          "indexed": true,
          "internalType": "address"
        },
        {
          "name": "fee",
          "type": "uint256",
          "indexed": false,
          "internalType": "uint256"
        },
        {
          "name": "protocolFee",
          "type": "uint256",
          "indexed": false,
          "internalType": "uint256"
        }
      ],
      "anonymous": false
    },
    {
      "type": "event",
      "name": "FeesCollected",
      "inputs": [
        {
          "name": "sender",
          "type": "address",
          "indexed": true,
          "internalType": "address"
        },
        {
          "name": "account",
          "type": "address",
          "indexed": true,
          "internalType": "address"
        },
        {
          "name": "token",
          "type": "address",
          "indexed": true,
          "internalType": "address"
        },
        {
          "name": "amount",
          "type": "uint256",
          "indexed": false,
          "internalType": "uint256"
        }
      ],
      "anonymous": false
    },
    {
      "type": "event",
      "name": "Initialized",
      "inputs": [
        {
          "name": "version",
          "type": "uint64",
          "indexed": false,
          "internalType": "uint64"
        }
      ],
      "anonymous": false
    },
    {
      "type": "event",
      "name": "MarketCreated",
      "inputs": [
        {
          "name": "creator",
          "type": "address",
          "indexed": true,
          "internalType": "address"
        },
        {
          "name": "quoteToken",
          "type": "address",
          "indexed": true,
          "internalType": "address"
        },
        {
          "name": "market",
          "type": "address",
          "indexed": false,
          "internalType": "address"
        },
        {
          "name": "token",
          "type": "address",
          "indexed": false,
          "internalType": "address"
        },
        {
          "name": "name",
          "type": "string",
          "indexed": false,
          "internalType": "string"
        },
        {
          "name": "symbol",
          "type": "string",
          "indexed": false,
          "internalType": "string"
        }
      ],
      "anonymous": false
    },
    {
      "type": "event",
      "name": "MarketDetailsUpdated",
      "inputs": [
        {
          "name": "market",
          "type": "address",
          "indexed": true,
          "internalType": "address"
        },
        {
          "name": "creator",
          "type": "address",
          "indexed": true,
          "internalType": "address"
        },
        {
          "name": "feeRecipient",
          "type": "address",
          "indexed": true,
          "internalType": "address"
        },
        {
          "name": "pendingCreator",
          "type": "address",
          "indexed": false,
          "internalType": "address"
        }
      ],
      "anonymous": false
    },
    {
      "type": "event",
      "name": "MarketImplementationSet",
      "inputs": [
        {
          "name": "sender",
          "type": "address",
          "indexed": true,
          "internalType": "address"
        },
        {
          "name": "quoteToken",
          "type": "address",
          "indexed": true,
          "internalType": "address"
        },
        {
          "name": "marketImplementation",
          "type": "address",
          "indexed": false,
          "internalType": "address"
        }
      ],
      "anonymous": false
    },
    {
      "type": "event",
      "name": "MarketMigrated",
      "inputs": [
        {
          "name": "sender",
          "type": "address",
          "indexed": true,
          "internalType": "address"
        },
        {
          "name": "market",
          "type": "address",
          "indexed": true,
          "internalType": "address"
        },
        {
          "name": "recipient",
          "type": "address",
          "indexed": true,
          "internalType": "address"
        },
        {
          "name": "amount0",
          "type": "uint256",
          "indexed": false,
          "internalType": "uint256"
        },
        {
          "name": "amount1",
          "type": "uint256",
          "indexed": false,
          "internalType": "uint256"
        }
      ],
      "anonymous": false
    },
    {
      "type": "event",
      "name": "MinUpdateTimeSet",
      "inputs": [
        {
          "name": "sender",
          "type": "address",
          "indexed": true,
          "internalType": "address"
        },
        {
          "name": "minUpdateTime",
          "type": "uint256",
          "indexed": false,
          "internalType": "uint256"
        }
      ],
      "anonymous": false
    },
    {
      "type": "event",
      "name": "ProtocolFeeShareSet",
      "inputs": [
        {
          "name": "sender",
          "type": "address",
          "indexed": true,
          "internalType": "address"
        },
        {
          "name": "protocolFeeShare",
          "type": "uint256",
          "indexed": false,
          "internalType": "uint256"
        }
      ],
      "anonymous": false
    },
    {
      "type": "event",
      "name": "RoleAdminChanged",
      "inputs": [
        {
          "name": "role",
          "type": "bytes32",
          "indexed": true,
          "internalType": "bytes32"
        },
        {
          "name": "previousAdminRole",
          "type": "bytes32",
          "indexed": true,
          "internalType": "bytes32"
        },
        {
          "name": "newAdminRole",
          "type": "bytes32",
          "indexed": true,
          "internalType": "bytes32"
        }
      ],
      "anonymous": false
    },
    {
      "type": "event",
      "name": "RoleGranted",
      "inputs": [
        {
          "name": "role",
          "type": "bytes32",
          "indexed": true,
          "internalType": "bytes32"
        },
        {
          "name": "account",
          "type": "address",
          "indexed": true,
          "internalType": "address"
        },
        {
          "name": "sender",
          "type": "address",
          "indexed": true,
          "internalType": "address"
        }
      ],
      "anonymous": false
    },
    {
      "type": "event",
      "name": "RoleRevoked",
      "inputs": [
        {
          "name": "role",
          "type": "bytes32",
          "indexed": true,
          "internalType": "bytes32"
        },
        {
          "name": "account",
          "type": "address",
          "indexed": true,
          "internalType": "address"
        },
        {
          "name": "sender",
          "type": "address",
          "indexed": true,
          "internalType": "address"
        }
      ],
      "anonymous": false
    },
    {
      "type": "event",
      "name": "TokenImplementationSet",
      "inputs": [
        {
          "name": "sender",
          "type": "address",
          "indexed": true,
          "internalType": "address"
        },
        {
          "name": "tokenImplementation",
          "type": "address",
          "indexed": false,
          "internalType": "address"
        }
      ],
      "anonymous": false
    },
    {
      "type": "error",
      "name": "AccessControlBadConfirmation",
      "inputs": []
    },
    {
      "type": "error",
      "name": "AccessControlUnauthorizedAccount",
      "inputs": [
        {
          "name": "account",
          "type": "address",
          "internalType": "address"
        },
        {
          "name": "neededRole",
          "type": "bytes32",
          "internalType": "bytes32"
        }
      ]
    },
    {
      "type": "error",
      "name": "FailedDeployment",
      "inputs": []
    },
    {
      "type": "error",
      "name": "InsufficientBalance",
      "inputs": [
        {
          "name": "balance",
          "type": "uint256",
          "internalType": "uint256"
        },
        {
          "name": "needed",
          "type": "uint256",
          "internalType": "uint256"
        }
      ]
    },
    {
      "type": "error",
      "name": "InsufficientFunds",
      "inputs": []
    },
    {
      "type": "error",
      "name": "InsufficientOutputAmount",
      "inputs": []
    },
    {
      "type": "error",
      "name": "InvalidFee",
      "inputs": []
    },
    {
      "type": "error",
      "name": "InvalidFeeRecipient",
      "inputs": []
    },
    {
      "type": "error",
      "name": "InvalidInitialization",
      "inputs": []
    },
    {
      "type": "error",
      "name": "InvalidMarket",
      "inputs": []
    },
    {
      "type": "error",
      "name": "InvalidMinUpdateTime",
      "inputs": []
    },
    {
      "type": "error",
      "name": "MarketImplementationNotSet",
      "inputs": []
    },
    {
      "type": "error",
      "name": "MinUpdateTimeNotPassed",
      "inputs": [
        {
          "name": "nextUpdateTime",
          "type": "uint256",
          "internalType": "uint256"
        }
      ]
    },
    {
      "type": "error",
      "name": "MismatchedQuoteToken",
      "inputs": []
    },
    {
      "type": "error",
      "name": "NotInitializing",
      "inputs": []
    },
    {
      "type": "error",
      "name": "QuoteTokenNotSupported",
      "inputs": []
    },
    {
      "type": "error",
      "name": "SafeERC20FailedOperation",
      "inputs": [
        {
          "name": "token",
          "type": "address",
          "internalType": "address"
        }
      ]
    },
    {
      "type": "error",
      "name": "TokenImplementationNotSet",
      "inputs": []
    },
    {
      "type": "error",
      "name": "TooManyQuoteTokenSent",
      "inputs": []
    },
    {
      "type": "error",
      "name": "TransferFailed",
      "inputs": []
    },
    {
      "type": "error",
      "name": "Unauthorized",
      "inputs": []
    }
  ],
  "bytecode": {
    "object": "0x60a060409080825234620003df576101208162003c0e803803809162000026828562000482565b833981010312620003df578051906020838183015193818401516060850151906200005460808701620004bc565b916200006360a08801620004bc565b916200007260c08901620004bc565b91620000906101006200008860e08c01620004bc565b9a01620004bc565b997ff0c57e16840df040f15088dc2f81fe391c3923bec73e23a9662efc9c229c6a009960ff8b54809a1c16159760018060401b0391828b169a8b15806200047a575b6001809d1490816200046f575b15908162000465575b5062000453578f8e60ff928d8f60018060401b0319831617835562000435575b5054901c161562000424576200011e90620004d1565b506b01000000000000000000000081101562000413578954600160a01b600160f81b03191660a082901b600160a01b600160f81b0316178a558d5190815233907f09bec47b78100f585081d753c590c51abb749656599bc2a1da1b1c642910a90a908c90a2620f4240808311620003f757908d9160025492518481527feb9608f59a784f52bcbd6ce2d1af3c2e6c2c939a2e11471c3bc0a03004d556818d3392a280861190811562000408575b50620003f7576fffffffff000000000000000000000000606085901b1692166001600160801b031991909116176bffffffff0000000000000000848e1b1617176002558a519182528782015233907f22ebb52208cb2baa57ac8cf7dfd9590d7344aa82fc625c12ff14030da3bd8a91908b90a26001600160a01b03918216928290846200034b576200025f8282166200063d565b505b1660008181528088528a902080546001600160a01b031990811686179091558a519485529333907f4940bf9ffc8ddf8af15c3e68093b50b6b91b79c43a5411566433dac9762a30fa908990a316809184541617835586519081527f011d982f9c7daa6919c98b12f31dc0ffa5271c08d434f48c17e30861d90141b7843392a26200030a575b505050608052516134de90816200073082396080518181816106bc01526112bc0152f35b7fc7f505b2f371ae2175ee4913f4499e1f2633a7b5936321eed1cdaeb6115181d29268ff00000000000000001981541690558451908152a1388080620002e6565b8a51634a64d67d60e01b81529091508781600481885afa8015620003ec578491600091620003a7575b5081831691829116036200039657906200038f8492620005b6565b5062000261565b8a516301a15f4160e01b8152600490fd5b809250898092503d8311620003e4575b620003c3818362000482565b81010312620003df57620003d88491620004bc565b3862000374565b600080fd5b503d620003b7565b8b513d6000823e3d90fd5b8d516358d620b360e01b8152600490fd5b9050841138620001cb565b8d51636fa20d8760e01b8152600490fd5b8e51631afcd79f60e31b8152600490fd5b6001600160481b031916680100000000000000011781553862000108565b508e5163f92ee8a960e01b8152600490fd5b90501538620000e8565b303b159150620000df565b508a620000d2565b601f909101601f19168101906001600160401b03821190821017620004a657604052565b634e487b7160e01b600052604160045260246000fd5b51906001600160a01b0382168203620003df57565b6001600160a01b031660008181527fb7db2dd08fcb62d0c9e08c51941cae53c267786a0b75803fb7960902fc8ef97d60205260408120549091907f02dd7bc7dec4dceedda775e58dd541e08a116c6c53815c0bd028192f7b6268009060ff166200057f578280526020526040822081835260205260408220600160ff1982541617905533917f2f8788117e7eff1d82e926ec794901d17c78024a50270940304540a733656f0d8180a4600190565b505090565b600854811015620005a057600860005260206000200190600090565b634e487b7160e01b600052603260045260246000fd5b6000818152600960205260408120546200063857600854680100000000000000008110156200062457908262000610620005f98460016040960160085562000584565b819391549060031b91821b91600019901b19161790565b905560085492815260096020522055600190565b634e487b7160e01b82526041600452602482fd5b905090565b60008181526009602052604081205490919080156200057f57600019908082018181116200071b57600854908382019182116200070757818103620006cd575b5050506008548015620006b957810190620006988262000584565b909182549160031b1b19169055600855815260096020526040812055600190565b634e487b7160e01b84526031600452602484fd5b620006f0620006e0620005f99362000584565b90549060031b1c92839262000584565b90558452600960205260408420553880806200067d565b634e487b7160e01b86526011600452602486fd5b634e487b7160e01b85526011600452602485fdfe608080604052600436101561001357600080fd5b600090813560e01c908163018317b6146126e65750806301ffc9a7146126265780630591157f146125da5780630b901eb214612597578063102fe5341461253257806312bda65a146124d9578063145d6a5114612476578063192bcad314612430578063248a9ca3146123c6578063251459e11461238d578063291f3b3c146123515780632f2ff15d146122d657806336568abe1461224b5780633a5d42131461200a578063568db06614611fb15780635950204514611dcb5780635c3feca514611bc857806369e330ec14611a805780636ca51cd014611a1a578063709bc7f3146119c8578063730143c6146116a557806388282e2a1461198057806389f73520146118fa57806391d148541461186857806392ef292c1461182c5780639b4149cd146117b35780639b74c6e81461172d5780639f2b0376146116df578063a217fddf146116a5578063aac45fb9146115f2578063b068f34f146114f2578063b0c26ecf146114b6578063b111345c14610739578063b313da13146106e0578063b381cf4014610671578063b9bdb4ef1461062b578063bf6e1da814610467578063d547741f146103e8578063e2e5c9a914610285578063f742919b146102425763f9d13792146101e457600080fd5b3461023f5760407ffffffffffffffffffffffffffffffffffffffffffffffffffffffffffffffffc36011261023f5761023461021e612759565b610226612781565b9061022f61294b565b612e2a565b602060405160018152f35b80fd5b503461023f5760207ffffffffffffffffffffffffffffffffffffffffffffffffffffffffffffffffc36011261023f5761027a61294b565b610234600435612cee565b503461023f57602090817ffffffffffffffffffffffffffffffffffffffffffffffffffffffffffffffffc36011261023f5773ffffffffffffffffffffffffffffffffffffffff90816102d6612759565b169182825260048452604082209060ff825416156103be5760028201805490338383160361039457600184018054927fffffffffffffffffffffffff00000000000000000000000000000000000000009133838616179055169055168252600a8452610345836040842061334f565b50338252600a845261035a83604084206131a2565b505460601c916040519182527f0d79de89fd6f1ba0ddf0234f586325a9c8482aa7b8b257dc1bcda7353f2c43c4843393a460405160018152f35b60046040517f82b42900000000000000000000000000000000000000000000000000000000008152fd5b60046040517f9db8d5b1000000000000000000000000000000000000000000000000000000008152fd5b503461023f5760407ffffffffffffffffffffffffffffffffffffffffffffffffffffffffffffffffc36011261023f57610463600435610426612781565b908084527f02dd7bc7dec4dceedda775e58dd541e08a116c6c53815c0bd028192f7b62680060205261045e6001604086200154612985565b612c2d565b5080f35b503461023f5760407ffffffffffffffffffffffffffffffffffffffffffffffffffffffffffffffffc36011261023f5761049f612759565b6104a7612781565b3360009081527f58b20827348449572053873d3bc24c9b686e7cc0d25b5e3eb9b91f360c1b955d60205260409020549091907f6d067d9fac7304828f046dfc7cb119ba2d6ea40e1cf7e50153540ed44e4dfcc99060ff16156105f4575073ffffffffffffffffffffffffffffffffffffffff80911690604051927fce5494bb0000000000000000000000000000000000000000000000000000000084521680600484015260408360248187865af19182156105e957849385936105a6575b506040809550518481528360208201527fd6e69e99f8820bd3a7d9331da909db1c319b88b68426cd6675566a5998b38c9f863392a482519182526020820152f35b935091506040833d6040116105e1575b816105c3604093836128cb565b810103126105dd5760409350602083519301519138610565565b8380fd5b3d91506105b6565b6040513d86823e3d90fd5b604490604051907fe2517d3f0000000000000000000000000000000000000000000000000000000082523360048301526024820152fd5b503461023f5760407ffffffffffffffffffffffffffffffffffffffffffffffffffffffffffffffffc36011261023f5761066361294b565b610234602435600435612d84565b503461023f57807ffffffffffffffffffffffffffffffffffffffffffffffffffffffffffffffffc36011261023f57602060405173ffffffffffffffffffffffffffffffffffffffff7f0000000000000000000000000000000000000000000000000000000000000000168152f35b503461023f57807ffffffffffffffffffffffffffffffffffffffffffffffffffffffffffffffffc36011261023f5760206040517ff1d75ad8a47785b1b2416baccbbe2ffcb39cdb54009c41d1e104784ead7e624a8152f35b5060c07ffffffffffffffffffffffffffffffffffffffffffffffffffffffffffffffffc36011261023f5760043567ffffffffffffffff81116114b2576107849036906004016127c7565b9160243567ffffffffffffffff81116114b2576107a59036906004016127c7565b916107ae6127a4565b926064359073ffffffffffffffffffffffffffffffffffffffff821682036114ae5782933073ffffffffffffffffffffffffffffffffffffffff8416036114845773ffffffffffffffffffffffffffffffffffffffff861684528360205260408420549660015473ffffffffffffffffffffffffffffffffffffffff89161561145a5773ffffffffffffffffffffffffffffffffffffffff811615611430577fffffffffffffffffffffffffffffffffff00000000000000000000000000000081763d602d80600a3d3981f3363d3d373d3d3d363d7300000062ffffff6e5af43d82803e903d91602b57fd5bf39460881c1617885260781b16176020526037600986f09773ffffffffffffffffffffffffffffffffffffffff891615611406577fffffffffffffffffffffffffffffffffff00000000000000000000000000000081763d602d80600a3d3981f3363d3d373d3d3d363d7300000062ffffff6e5af43d82803e903d91602b57fd5bf39460881c1617885260781b161760205273ffffffffffffffffffffffffffffffffffffffff88166037600987f59873ffffffffffffffffffffffffffffffffffffffff8a16156114065773ffffffffffffffffffffffffffffffffffffffff8916865260056020526040862073ffffffffffffffffffffffffffffffffffffffff8b167fffffffffffffffffffffffff00000000000000000000000000000000000000008254161790556040517f4cd88b76000000000000000000000000000000000000000000000000000000008152604060048201526020818b818a73ffffffffffffffffffffffffffffffffffffffff82610a51610a20604483018b8d61290c565b7ffffffffffffffffffffffffffffffffffffffffffffffffffffffffffffffffc8382030160248401528d8d61290c565b0393165af180156113dc576113e7575b5089602073ffffffffffffffffffffffffffffffffffffffff60648c8a836002549663ffffffff60405198899788967f7a1ac61e000000000000000000000000000000000000000000000000000000008852166004870152818160401c16602487015260601c166044850152165af180156113dc576113ad575b50600654680100000000000000009081811015611380576001810180600655811015611353577ff652222313e28459528d920b65115c16c04f3efc82aaedc97be59f3f377c0d3f0173ffffffffffffffffffffffffffffffffffffffff8b167fffffffffffffffffffffffff0000000000000000000000000000000000000000825416179055600754908110156113265760018101806007558110156112f957908a9291600788527fa66cc928b5edb82af9bd49922954155ab7b0942694bea4ce44661d9a8736c6880173ffffffffffffffffffffffffffffffffffffffff84167fffffffffffffffffffffffff00000000000000000000000000000000000000008254161790558673ffffffffffffffffffffffffffffffffffffffff60026affffffffffffffffffffff86610cfb848c610cbe60405195610c1d876128af565b6001875260208701814216815284604089019416845260408b8660608b0199338b5260808c019e8f521681526004602052209751151560ff7fffffffffffffffffffffffffffffffffffffffffffffffffffffffffffffff008a54169116178855511686907fffffffffffffffffffffffffffffffffffffffff0000000000000000000000ff6bffffffffffffffffffffff0083549260081b169116179055565b5184546bffffffffffffffffffffffff16911660601b7fffffffffffffffffffffffffffffffffffffffff00000000000000000000000016178355565b83600183019151167fffffffffffffffffffffffff0000000000000000000000000000000000000000825416179055019151167fffffffffffffffffffffffff0000000000000000000000000000000000000000825416179055338752600a602052610d8073ffffffffffffffffffffffffffffffffffffffff8416604089206131a2565b50608435610f99575b8934610e91575b92610e0d610e8d9a73ffffffffffffffffffffffffffffffffffffffff610dfb7f97649001b80ebd46367dcea432c15509b6faa70b0f60ad4a04bfe2b0d5c1d0b096829b9a999896838098604051998a9916895216602088015260806040880152608087019161290c565b9184830360608601521696339661290c565b0390a3604051928352169033907f0d79de89fd6f1ba0ddf0234f586325a9c8482aa7b8b257dc1bcda7353f2c43c4602073ffffffffffffffffffffffffffffffffffffffff891692a46040519384938460409194939294606082019573ffffffffffffffffffffffffffffffffffffffff80921683521660208201520152565b0390f35b4780610e9e575b50610d90565b919296959493505060405190602082019180831067ffffffffffffffff841117610f65578289939284809493819460405252335af13d15610f94573d67ffffffffffffffff8111610f655760405190610f1f60207fffffffffffffffffffffffffffffffffffffffffffffffffffffffffffffffe0601f84011601836128cb565b81528760203d92013e5b15610f3b579389919293948938610e98565b60046040517f90b8ec18000000000000000000000000000000000000000000000000000000008152fd5b7f4e487b7100000000000000000000000000000000000000000000000000000000600052604160045260246000fd5b610f29565b91509550608435341015806112a4575b1561121a5773ffffffffffffffffffffffffffffffffffffffff87163b15611216576040517fd0e30db0000000000000000000000000000000000000000000000000000000008152858160048160843573ffffffffffffffffffffffffffffffffffffffff8d165af180156111c2576111cd575b506110416084358a73ffffffffffffffffffffffffffffffffffffffff8a16612ffb565b84604073ffffffffffffffffffffffffffffffffffffffff60848c835194859384927fabb1db2a000000000000000000000000000000000000000000000000000000008452336004850152826024850152843560448501526f7fffffffffffffffffffffffffffffff6064850152165af180156111c25786918791611185575b506084350361115b577f8000000000000000000000000000000000000000000000000000000000000000811461112e5785039560a4358710611104578991610d89565b60046040517f42301c23000000000000000000000000000000000000000000000000000000008152fd5b6024867f4e487b710000000000000000000000000000000000000000000000000000000081526011600452fd5b60046040517f2902fbee000000000000000000000000000000000000000000000000000000008152fd5b9150506040813d6040116111ba575b816111a1604093836128cb565b810103126111b65760208151910151386110c1565b8580fd5b3d9150611194565b6040513d88823e3d90fd5b67ffffffffffffffff81969296116111e957604052933861101d565b6024827f4e487b710000000000000000000000000000000000000000000000000000000081526041600452fd5b8480fd5b6040517f23b872dd00000000000000000000000000000000000000000000000000000000602082015233602482015273ffffffffffffffffffffffffffffffffffffffff8a16604482015260848035606480840191909152825261129f919061128390826128cb565b73ffffffffffffffffffffffffffffffffffffffff8916613088565b611041565b5073ffffffffffffffffffffffffffffffffffffffff7f00000000000000000000000000000000000000000000000000000000000000001673ffffffffffffffffffffffffffffffffffffffff881614610fa9565b6024877f4e487b710000000000000000000000000000000000000000000000000000000081526032600452fd5b6024877f4e487b710000000000000000000000000000000000000000000000000000000081526041600452fd5b6024887f4e487b710000000000000000000000000000000000000000000000000000000081526032600452fd5b6024887f4e487b710000000000000000000000000000000000000000000000000000000081526041600452fd5b6113ce9060203d6020116113d5575b6113c681836128cb565b810190613070565b5038610adb565b503d6113bc565b6040513d89823e3d90fd5b6113ff9060203d6020116113d5576113c681836128cb565b5038610a61565b60046040517fb06ebf3d000000000000000000000000000000000000000000000000000000008152fd5b60046040517fdaa2f31f000000000000000000000000000000000000000000000000000000008152fd5b60046040517fa14401e9000000000000000000000000000000000000000000000000000000008152fd5b60046040517f768dc598000000000000000000000000000000000000000000000000000000008152fd5b8280fd5b5080fd5b503461023f57807ffffffffffffffffffffffffffffffffffffffffffffffffffffffffffffffffc36011261023f576020600654604051908152f35b503461023f5760207ffffffffffffffffffffffffffffffffffffffffffffffffffffffffffffffffc36011261023f5760a090604061152f612759565b91806080835161153e816128af565b8281528260208201528285820152826060820152015273ffffffffffffffffffffffffffffffffffffffff809316815260046020522090604051611581816128af565b818354938160ff86161515958685526affffffffffffffffffffff60208601818360081c168152604087019260601c83526080846002816001890154169760608b01988952015416970196875260405198895251166020880152511660408601525116606084015251166080820152f35b503461023f5760207ffffffffffffffffffffffffffffffffffffffffffffffffffffffffffffffffc36011261023f576004359060085482101561167857602091600873ffffffffffffffffffffffffffffffffffffffff92527ff3f7a9fe364faab93b216da50a3214154f22a0a2b415b23a84c8169e8b636ee3015416604051908152f35b807f4e487b7100000000000000000000000000000000000000000000000000000000602492526032600452fd5b503461023f57807ffffffffffffffffffffffffffffffffffffffffffffffffffffffffffffffffc36011261023f57602090604051908152f35b503461023f57807ffffffffffffffffffffffffffffffffffffffffffffffffffffffffffffffffc36011261023f57604060025463ffffffff8251918181851c16835260601c166020820152f35b503461023f5760207ffffffffffffffffffffffffffffffffffffffffffffffffffffffffffffffffc36011261023f576004359060075482101561167857602091600773ffffffffffffffffffffffffffffffffffffffff92527fa66cc928b5edb82af9bd49922954155ab7b0942694bea4ce44661d9a8736c688015416604051908152f35b503461023f5760407ffffffffffffffffffffffffffffffffffffffffffffffffffffffffffffffffc36011261023f5760209061181c6117f1612759565b9173ffffffffffffffffffffffffffffffffffffffff8093168152600a845260406024359120612897565b9190546040519260031b1c168152f35b503461023f57807ffffffffffffffffffffffffffffffffffffffffffffffffffffffffffffffffc36011261023f576020600754604051908152f35b503461023f5760407ffffffffffffffffffffffffffffffffffffffffffffffffffffffffffffffffc36011261023f5760ff60406020926118a7612781565b60043582527f02dd7bc7dec4dceedda775e58dd541e08a116c6c53815c0bd028192f7b626800855273ffffffffffffffffffffffffffffffffffffffff8383209116825284522054166040519015158152f35b503461023f5760207ffffffffffffffffffffffffffffffffffffffffffffffffffffffffffffffffc36011261023f576004359060065482101561167857602091600673ffffffffffffffffffffffffffffffffffffffff92527ff652222313e28459528d920b65115c16c04f3efc82aaedc97be59f3f377c0d3f015416604051908152f35b503461023f5760207ffffffffffffffffffffffffffffffffffffffffffffffffffffffffffffffffc36011261023f576102346119bb612759565b6119c361294b565b612f8d565b503461023f57807ffffffffffffffffffffffffffffffffffffffffffffffffffffffffffffffffc36011261023f57602073ffffffffffffffffffffffffffffffffffffffff60015416604051908152f35b503461023f5760207ffffffffffffffffffffffffffffffffffffffffffffffffffffffffffffffffc36011261023f57602090604073ffffffffffffffffffffffffffffffffffffffff9182611a6e612759565b16815260058452205416604051908152f35b503461023f5760407ffffffffffffffffffffffffffffffffffffffffffffffffffffffffffffffffc36011261023f57611ab8612759565b6024359133815260209260048452604082205460ff8116156103be5767ffffffffffffffff60025416808302908382041483151715611b9b57620f4240808204910615150190818303928311611b9b5773ffffffffffffffffffffffffffffffffffffffff60409160601c951693848152600387528181208180528752818120611b438482546127f5565b905584815260038752818120868252875220611b608382546127f5565b9055604051918252848201527f5615879a6ee6c34a99bea9c695e6a312a11d3f7c0212f68f6356cb8b6676891a60403392a460405160018152f35b6024847f4e487b710000000000000000000000000000000000000000000000000000000081526011600452fd5b503461023f5760807ffffffffffffffffffffffffffffffffffffffffffffffffffffffffffffffffc36011261023f57611c00612759565b611c08612781565b611c106127a4565b926064359173ffffffffffffffffffffffffffffffffffffffff809116933385141580611d61575b80611cf8575b6103945783611c5257602060405160018152f35b1693848252600360205260408220848352602052604082205490818411611cce5782604085809489611c97975260036020528284208985526020520391205585612ffb565b6040519081527f282ed85673e386d463e3a6c3912b2ec9ee118cf17e0b7af46a5db502d6bba0cb60203392a4388080808080610234565b60046040517f356680b7000000000000000000000000000000000000000000000000000000008152fd5b5084151580611c3e57507ffbdaa9b2cdd0e00d173797fa0aabc466bb6632ab006df1b8242399149b12115f83527f02dd7bc7dec4dceedda775e58dd541e08a116c6c53815c0bd028192f7b6268006020526040832033845260205260ff60408420541615611c3e565b503085141580611c3857507ff1d75ad8a47785b1b2416baccbbe2ffcb39cdb54009c41d1e104784ead7e624a83527f02dd7bc7dec4dceedda775e58dd541e08a116c6c53815c0bd028192f7b6268006020526040832033845260205260ff60408420541615611c38565b503461023f5760607ffffffffffffffffffffffffffffffffffffffffffffffffffffffffffffffffc36011261023f57611e03612759565b90611e0c612781565b90611e156127a4565b604073ffffffffffffffffffffffffffffffffffffffff8095169283815260046020522080549460ff8616156103be57806001830154163303610394578060028301951694857fffffffffffffffffffffffff00000000000000000000000000000000000000008254161790558216948060601c8603611eca575b5050506040519182527f0d79de89fd6f1ba0ddf0234f586325a9c8482aa7b8b257dc1bcda7353f2c43c460203393a4602060405160018152f35b30860361148457611ef46affffffffffffffffffffff91828060015460a01c169160081c166127f5565b428111611f80575081547fffffffffffffffffffffffffffffffffffffffff0000000000000000000000ff164290911660081b6bffffffffffffffffffffff0016178155611f78916bffffffffffffffffffffffff7fffffffffffffffffffffffffffffffffffffffff00000000000000000000000083549260601b169116179055565b388080611e90565b602490604051907fd4e85e130000000000000000000000000000000000000000000000000000000082526004820152fd5b503461023f57807ffffffffffffffffffffffffffffffffffffffffffffffffffffffffffffffffc36011261023f5760206040517ffbdaa9b2cdd0e00d173797fa0aabc466bb6632ab006df1b8242399149b12115f8152f35b503461023f576101007ffffffffffffffffffffffffffffffffffffffffffffffffffffffffffffffffc36011261023f5773ffffffffffffffffffffffffffffffffffffffff60843581811681036114ae5760a4359082821682036105dd5760c43583811681036112165760e4359384168403611216577ff0c57e16840df040f15088dc2f81fe391c3923bec73e23a9662efc9c229c6a009384549360ff8560401c16159467ffffffffffffffff811680159081612243575b6001149081612239575b159081612230575b50612206578560017fffffffffffffffffffffffffffffffffffffffffffffffff000000000000000083161788556121d1575b5060ff865460401c16156121a75761214b936121266119c393612a85565b506121326004356129ca565b61213d602435612cee565b61022f606435604435612d84565b612153575080f35b7fffffffffffffffffffffffffffffffffffffffffffffff00ffffffffffffffff81541690557fc7f505b2f371ae2175ee4913f4499e1f2633a7b5936321eed1cdaeb6115181d2602060405160018152a180f35b60046040517fd7e6bcf8000000000000000000000000000000000000000000000000000000008152fd5b7fffffffffffffffffffffffffffffffffffffffffffffff000000000000000000166801000000000000000117865538612108565b60046040517ff92ee8a9000000000000000000000000000000000000000000000000000000008152fd5b905015386120d5565b303b1591506120cd565b8791506120c3565b503461023f5760407ffffffffffffffffffffffffffffffffffffffffffffffffffffffffffffffffc36011261023f57612283612781565b3373ffffffffffffffffffffffffffffffffffffffff8216036122ac5761046390600435612c2d565b60046040517f6697b232000000000000000000000000000000000000000000000000000000008152fd5b503461023f5760407ffffffffffffffffffffffffffffffffffffffffffffffffffffffffffffffffc36011261023f57610463600435612314612781565b908084527f02dd7bc7dec4dceedda775e58dd541e08a116c6c53815c0bd028192f7b62680060205261234c6001604086200154612985565b612b62565b503461023f57807ffffffffffffffffffffffffffffffffffffffffffffffffffffffffffffffffc36011261023f576020600854604051908152f35b503461023f57807ffffffffffffffffffffffffffffffffffffffffffffffffffffffffffffffffc36011261023f576020604051308152f35b503461023f5760207ffffffffffffffffffffffffffffffffffffffffffffffffffffffffffffffffc36011261023f576001604060209260043581527f02dd7bc7dec4dceedda775e58dd541e08a116c6c53815c0bd028192f7b6268008452200154604051908152f35b503461023f57807ffffffffffffffffffffffffffffffffffffffffffffffffffffffffffffffffc36011261023f57602067ffffffffffffffff60025416604051908152f35b503461023f5760207ffffffffffffffffffffffffffffffffffffffffffffffffffffffffffffffffc36011261023f57604060209173ffffffffffffffffffffffffffffffffffffffff6124c8612759565b168152600a83522054604051908152f35b503461023f57807ffffffffffffffffffffffffffffffffffffffffffffffffffffffffffffffffc36011261023f5760206040517f6d067d9fac7304828f046dfc7cb119ba2d6ea40e1cf7e50153540ed44e4dfcc98152f35b503461023f5760207ffffffffffffffffffffffffffffffffffffffffffffffffffffffffffffffffc36011261023f57602090604073ffffffffffffffffffffffffffffffffffffffff9182612586612759565b168152808452205416604051908152f35b503461023f5760207ffffffffffffffffffffffffffffffffffffffffffffffffffffffffffffffffc36011261023f576125cf61294b565b6102346004356129ca565b503461023f57807ffffffffffffffffffffffffffffffffffffffffffffffffffffffffffffffffc36011261023f5760206affffffffffffffffffffff60015460a01c16604051908152f35b503461023f5760207ffffffffffffffffffffffffffffffffffffffffffffffffffffffffffffffffc36011261023f576004357fffffffff0000000000000000000000000000000000000000000000000000000081168091036114b257807f7965db0b00000000000000000000000000000000000000000000000000000000602092149081156126bc575b506040519015158152f35b7f01ffc9a700000000000000000000000000000000000000000000000000000000915014826126b1565b9050346114b25760407ffffffffffffffffffffffffffffffffffffffffffffffffffffffffffffffffc3601126114b2576040602092612724612759565b61272c612781565b73ffffffffffffffffffffffffffffffffffffffff91821683526003865283832091168252845220548152f35b6004359073ffffffffffffffffffffffffffffffffffffffff8216820361277c57565b600080fd5b6024359073ffffffffffffffffffffffffffffffffffffffff8216820361277c57565b6044359073ffffffffffffffffffffffffffffffffffffffff8216820361277c57565b9181601f8401121561277c5782359167ffffffffffffffff831161277c576020838186019501011161277c57565b9190820180921161280257565b7f4e487b7100000000000000000000000000000000000000000000000000000000600052601160045260246000fd5b6008548110156128685760086000527ff3f7a9fe364faab93b216da50a3214154f22a0a2b415b23a84c8169e8b636ee30190600090565b7f4e487b7100000000000000000000000000000000000000000000000000000000600052603260045260246000fd5b80548210156128685760005260206000200190600090565b60a0810190811067ffffffffffffffff821117610f6557604052565b90601f7fffffffffffffffffffffffffffffffffffffffffffffffffffffffffffffffe0910116810190811067ffffffffffffffff821117610f6557604052565b601f82602094937fffffffffffffffffffffffffffffffffffffffffffffffffffffffffffffffe0938186528686013760008582860101520116010190565b3360009081527fb7db2dd08fcb62d0c9e08c51941cae53c267786a0b75803fb7960902fc8ef97d602052604081205460ff16156105f45750565b806000527f02dd7bc7dec4dceedda775e58dd541e08a116c6c53815c0bd028192f7b62680060205260406000203360005260205260ff60406000205416156105f45750565b6b010000000000000000000000811015612a5b576001547fff0000000000000000000000ffffffffffffffffffffffffffffffffffffffff7effffffffffffffffffffff00000000000000000000000000000000000000008360a01b169116176001556040519081527f09bec47b78100f585081d753c590c51abb749656599bc2a1da1b1c642910a90a60203392a2565b60046040517f6fa20d87000000000000000000000000000000000000000000000000000000008152fd5b73ffffffffffffffffffffffffffffffffffffffff1660008181527fb7db2dd08fcb62d0c9e08c51941cae53c267786a0b75803fb7960902fc8ef97d60205260408120549091907f02dd7bc7dec4dceedda775e58dd541e08a116c6c53815c0bd028192f7b6268009060ff16612b5d57828052602052604082208183526020526040822060017fffffffffffffffffffffffffffffffffffffffffffffffffffffffffffffff0082541617905533917f2f8788117e7eff1d82e926ec794901d17c78024a50270940304540a733656f0d8180a4600190565b505090565b906000918083527f02dd7bc7dec4dceedda775e58dd541e08a116c6c53815c0bd028192f7b6268008060205273ffffffffffffffffffffffffffffffffffffffff6040852093169283855260205260ff60408520541615600014612c2757818452602052604083208284526020526040832060017fffffffffffffffffffffffffffffffffffffffffffffffffffffffffffffff008254161790557f2f8788117e7eff1d82e926ec794901d17c78024a50270940304540a733656f0d339380a4600190565b50505090565b906000918083527f02dd7bc7dec4dceedda775e58dd541e08a116c6c53815c0bd028192f7b6268008060205273ffffffffffffffffffffffffffffffffffffffff6040852093169283855260205260ff604085205416600014612c275781845260205260408320828452602052604083207fffffffffffffffffffffffffffffffffffffffffffffffffffffffffffffff0081541690557ff6391f5c32d9c69d2a47ea670b442974b53935d1edc7fd64eb21e047a839171b339380a4600190565b620f42408111612d5a5767ffffffffffffffff81167fffffffffffffffffffffffffffffffffffffffffffffffff000000000000000060025416176002556040519081527feb9608f59a784f52bcbd6ce2d1af3c2e6c2c939a2e11471c3bc0a03004d5568160203392a2565b60046040517f58d620b3000000000000000000000000000000000000000000000000000000008152fd5b90620f4240808311908115612e20575b50612d5a576002546fffffffff0000000000000000000000008260601b16907fffffffffffffffffffffffffffffffff0000000000000000ffffffffffffffff6bffffffff00000000000000008560401b169116171760025560405191825260208201527f22ebb52208cb2baa57ac8cf7dfd9590d7344aa82fc625c12ff14030da3bd8a9160403392a2565b9050811138612d94565b73ffffffffffffffffffffffffffffffffffffffff918216919082612ebc57612e5482821661322e565b505b16908160005260006020526040600020817fffffffffffffffffffffffff00000000000000000000000000000000000000008254161790556040519081527f4940bf9ffc8ddf8af15c3e68093b50b6b91b79c43a5411566433dac9762a30fa60203392a3565b6040517f4a64d67d000000000000000000000000000000000000000000000000000000008152602081600481875afa8015612f81578391600091612f41575b508183169182911603612f1757612f1190613116565b50612e56565b60046040517f01a15f41000000000000000000000000000000000000000000000000000000008152fd5b9091506020813d602011612f79575b81612f5d602093836128cb565b810103126114b2575190838216820361023f5750829038612efb565b3d9150612f50565b6040513d6000823e3d90fd5b73ffffffffffffffffffffffffffffffffffffffff16807fffffffffffffffffffffffff000000000000000000000000000000000000000060015416176001556040519081527f011d982f9c7daa6919c98b12f31dc0ffa5271c08d434f48c17e30861d90141b760203392a2565b9173ffffffffffffffffffffffffffffffffffffffff604051927fa9059cbb000000000000000000000000000000000000000000000000000000006020850152166024830152604482015260448152608081019181831067ffffffffffffffff841117610f655761306e92604052613088565b565b9081602091031261277c5751801515810361277c5790565b906000602091828151910182855af115612f81576000513d61310d575073ffffffffffffffffffffffffffffffffffffffff81163b155b6130c65750565b60249073ffffffffffffffffffffffffffffffffffffffff604051917f5274afe7000000000000000000000000000000000000000000000000000000008352166004820152fd5b600114156130bf565b60008181526009602052604081205461319d57600854680100000000000000008110156111e957908261318961315484600160409601600855612831565b81939154907fffffffffffffffffffffffffffffffffffffffffffffffffffffffffffffffff9060031b92831b921b19161790565b905560085492815260096020522055600190565b905090565b9190600183016000908282528060205260408220541560001461322857845494680100000000000000008610156131fb57836131eb613154886001604098999a01855584612897565b9055549382526020522055600190565b6024837f4e487b710000000000000000000000000000000000000000000000000000000081526041600452fd5b50925050565b6000818152600960205260408120549091908015612b5d577fffffffffffffffffffffffffffffffffffffffffffffffffffffffffffffffff90818101818111613322576008549083820191821161112e578181036132ee575b50505060085480156132c1578101906132a082612831565b909182549160031b1b19169055600855815260096020526040812055600190565b6024847f4e487b710000000000000000000000000000000000000000000000000000000081526031600452fd5b61330c6132fd61315493612831565b90549060031b1c928392612831565b9055845260096020526040842055388080613288565b6024857f4e487b710000000000000000000000000000000000000000000000000000000081526011600452fd5b906001820190600092818452826020526040842054908115156000146134a1577fffffffffffffffffffffffffffffffffffffffffffffffffffffffffffffffff918281018181116134745782549084820191821161344757818103613412575b505050805480156133e5578201916133c88383612897565b909182549160031b1b191690555582526020526040812055600190565b6024867f4e487b710000000000000000000000000000000000000000000000000000000081526031600452fd5b6134326134226131549386612897565b90549060031b1c92839286612897565b905586528460205260408620553880806133b0565b6024887f4e487b710000000000000000000000000000000000000000000000000000000081526011600452fd5b6024877f4e487b710000000000000000000000000000000000000000000000000000000081526011600452fd5b505050509056fea2646970667358221220eb87d5d9ab720824a291d24c4c04a5d249cc5d44f750b8ff70cf25434d365fc864736f6c63430008180033",
    "linkReferences": {}
  },
  "methodIdentifiers": {
    "DEFAULT_ADMIN_ROLE()": "a217fddf",
    "KOTM_COLLECTOR_ROLE()": "b313da13",
    "KOTM_FEE_RECIPIENT()": "251459e1",
    "MARKET_MIGRATOR_ROLE()": "12bda65a",
    "PROTOCOL_FEE_COLLECTOR_ROLE()": "568db066",
    "PROTOCOL_FEE_RECIPIENT()": "730143c6",
    "WNATIVE()": "b381cf40",
    "acceptMarketCreator(address)": "e2e5c9a9",
    "collect(address,address,address,uint256)": "5c3feca5",
    "createMarket(string,string,address,address,uint256,uint256)": "b111345c",
    "getDefaultFees()": "9f2b0376",
    "getMarketAt(uint256)": "9b74c6e8",
    "getMarketByCreatorAt(address,uint256)": "9b4149cd",
    "getMarketByCreatorLength(address)": "145d6a51",
    "getMarketDetails(address)": "b068f34f",
    "getMarketImplementation(address)": "102fe534",
    "getMarketOf(address)": "6ca51cd0",
    "getMarketsLength()": "92ef292c",
    "getMinUpdateTime()": "0591157f",
    "getProtocolFeeShare()": "192bcad3",
    "getQuoteTokenAt(uint256)": "aac45fb9",
    "getQuoteTokensLength()": "291f3b3c",
    "getRoleAdmin(bytes32)": "248a9ca3",
    "getTokenAt(uint256)": "89f73520",
    "getTokenImplementation()": "709bc7f3",
    "getTokensLength()": "b0c26ecf",
    "getUnclaimedFees(address,address)": "018317b6",
    "grantRole(bytes32,address)": "2f2ff15d",
    "hasRole(bytes32,address)": "91d14854",
    "initialize(uint256,uint256,uint256,uint256,address,address,address,address)": "3a5d4213",
    "migrateMarket(address,address)": "bf6e1da8",
    "onFeeReceived(address,uint256)": "69e330ec",
    "renounceRole(bytes32,address)": "36568abe",
    "revokeRole(bytes32,address)": "d547741f",
    "setDefaultFees(uint256,uint256)": "b9bdb4ef",
    "setMarketImplementation(address,address)": "f9d13792",
    "setMinUpdateTime(uint256)": "0b901eb2",
    "setProtocolFeeShare(uint256)": "f742919b",
    "setTokenImplementation(address)": "88282e2a",
    "supportsInterface(bytes4)": "01ffc9a7",
    "updateMarketDetails(address,address,address)": "59502045"
  },
  "id": 54
}