{
  "abi": [
    {
      "type": "constructor",
      "inputs": [
        {
          "name": "factory_",
          "type": "address",
          "internalType": "address"
        },
        {
          "name": "quoteToken_",
          "type": "address",
          "internalType": "address"
        },
        {
          "name": "amount0A",
          "type": "uint256",
          "internalType": "uint256"
        },
        {
          "name": "amount0B",
          "type": "uint256",
          "internalType": "uint256"
        },
        {
          "name": "sqrtRatioAX96_",
          "type": "uint256",
          "internalType": "uint256"
        },
        {
          "name": "sqrtRatioBX96_",
          "type": "uint256",
          "internalType": "uint256"
        }
      ],
      "stateMutability": "nonpayable"
    },
    {
      "type": "function",
      "name": "getBaseToken",
      "inputs": [],
      "outputs": [
        {
          "name": "",
          "type": "address",
          "internalType": "address"
        }
      ],
      "stateMutability": "view"
    },
    {
      "type": "function",
      "name": "getCurrentSqrtRatio",
      "inputs": [],
      "outputs": [
        {
          "name": "",
          "type": "uint256",
          "internalType": "uint256"
        }
      ],
      "stateMutability": "view"
    },
    {
      "type": "function",
      "name": "getDeltaAmounts",
      "inputs": [
        {
          "name": "zeroForOne",
          "type": "bool",
          "internalType": "bool"
        },
        {
          "name": "deltaAmount",
          "type": "int256",
          "internalType": "int256"
        },
        {
          "name": "sqrtRatioLimitX96",
          "type": "uint256",
          "internalType": "uint256"
        }
      ],
      "outputs": [
        {
          "name": "amount0",
          "type": "int256",
          "internalType": "int256"
        },
        {
          "name": "amount1",
          "type": "int256",
          "internalType": "int256"
        }
      ],
      "stateMutability": "view"
    },
    {
      "type": "function",
      "name": "getFactory",
      "inputs": [],
      "outputs": [
        {
          "name": "",
          "type": "address",
          "internalType": "address"
        }
      ],
      "stateMutability": "view"
    },
    {
      "type": "function",
      "name": "getFees",
      "inputs": [],
      "outputs": [
        {
          "name": "",
          "type": "uint256",
          "internalType": "uint256"
        },
        {
          "name": "",
          "type": "uint256",
          "internalType": "uint256"
        }
      ],
      "stateMutability": "view"
    },
    {
      "type": "function",
      "name": "getIsMigrated",
      "inputs": [],
      "outputs": [
        {
          "name": "",
          "type": "bool",
          "internalType": "bool"
        }
      ],
      "stateMutability": "view"
    },
    {
      "type": "function",
      "name": "getLiquidities",
      "inputs": [],
      "outputs": [
        {
          "name": "",
          "type": "uint256",
          "internalType": "uint256"
        },
        {
          "name": "",
          "type": "uint256",
          "internalType": "uint256"
        }
      ],
      "stateMutability": "view"
    },
    {
      "type": "function",
      "name": "getQuoteToken",
      "inputs": [],
      "outputs": [
        {
          "name": "",
          "type": "address",
          "internalType": "address"
        }
      ],
      "stateMutability": "view"
    },
    {
      "type": "function",
      "name": "getReserves",
      "inputs": [],
      "outputs": [
        {
          "name": "",
          "type": "uint256",
          "internalType": "uint256"
        },
        {
          "name": "",
          "type": "uint256",
          "internalType": "uint256"
        }
      ],
      "stateMutability": "view"
    },
    {
      "type": "function",
      "name": "getSqrtRatiosBounds",
      "inputs": [],
      "outputs": [
        {
          "name": "",
          "type": "uint256",
          "internalType": "uint256"
        },
        {
          "name": "",
          "type": "uint256",
          "internalType": "uint256"
        },
        {
          "name": "",
          "type": "uint256",
          "internalType": "uint256"
        }
      ],
      "stateMutability": "view"
    },
    {
      "type": "function",
      "name": "initialize",
      "inputs": [
        {
          "name": "token",
          "type": "address",
          "internalType": "address"
        },
        {
          "name": "feeA_",
          "type": "uint256",
          "internalType": "uint256"
        },
        {
          "name": "feeB_",
          "type": "uint256",
          "internalType": "uint256"
        }
      ],
      "outputs": [
        {
          "name": "",
          "type": "bool",
          "internalType": "bool"
        }
      ],
      "stateMutability": "nonpayable"
    },
    {
      "type": "function",
      "name": "migrate",
      "inputs": [
        {
          "name": "recipient",
          "type": "address",
          "internalType": "address"
        }
      ],
      "outputs": [
        {
          "name": "amount0",
          "type": "uint256",
          "internalType": "uint256"
        },
        {
          "name": "amount1",
          "type": "uint256",
          "internalType": "uint256"
        }
      ],
      "stateMutability": "nonpayable"
    },
    {
      "type": "function",
      "name": "swap",
      "inputs": [
        {
          "name": "to",
          "type": "address",
          "internalType": "address"
        },
        {
          "name": "zeroForOne",
          "type": "bool",
          "internalType": "bool"
        },
        {
          "name": "deltaAmount",
          "type": "int256",
          "internalType": "int256"
        },
        {
          "name": "sqrtRatioLimitX96",
          "type": "uint256",
          "internalType": "uint256"
        }
      ],
      "outputs": [
        {
          "name": "amount0",
          "type": "int256",
          "internalType": "int256"
        },
        {
          "name": "amount1",
          "type": "int256",
          "internalType": "int256"
        }
      ],
      "stateMutability": "nonpayable"
    },
    {
      "type": "event",
      "name": "Swap",
      "inputs": [
        {
          "name": "sender",
          "type": "address",
          "indexed": true,
          "internalType": "address"
        },
        {
          "name": "to",
          "type": "address",
          "indexed": true,
          "internalType": "address"
        },
        {
          "name": "amount0",
          "type": "int256",
          "indexed": false,
          "internalType": "int256"
        },
        {
          "name": "amount1",
          "type": "int256",
          "indexed": false,
          "internalType": "int256"
        },
        {
          "name": "feeAmountIn",
          "type": "uint256",
          "indexed": false,
          "internalType": "uint256"
        },
        {
          "name": "feeAmount1",
          "type": "uint256",
          "indexed": false,
          "internalType": "uint256"
        },
        {
          "name": "sqrtRatioX96",
          "type": "uint256",
          "indexed": false,
          "internalType": "uint256"
        }
      ],
      "anonymous": false
    },
    {
      "type": "error",
      "name": "AddDeltaOverflow",
      "inputs": []
    },
    {
      "type": "error",
      "name": "AlreadyInitialized",
      "inputs": []
    },
    {
      "type": "error",
      "name": "AmountsOverflow",
      "inputs": []
    },
    {
      "type": "error",
      "name": "InsufficientBalance0",
      "inputs": []
    },
    {
      "type": "error",
      "name": "InsufficientBalance1",
      "inputs": []
    },
    {
      "type": "error",
      "name": "Int128Overflow",
      "inputs": []
    },
    {
      "type": "error",
      "name": "Int256Overflow",
      "inputs": []
    },
    {
      "type": "error",
      "name": "InvalidFee",
      "inputs": []
    },
    {
      "type": "error",
      "name": "InvalidRatios",
      "inputs": []
    },
    {
      "type": "error",
      "name": "InvalidRatiosOrder",
      "inputs": []
    },
    {
      "type": "error",
      "name": "InvalidSqrtRatioLimit",
      "inputs": []
    },
    {
      "type": "error",
      "name": "LiquiditiesZero",
      "inputs": []
    },
    {
      "type": "error",
      "name": "LiquidityOverflow0",
      "inputs": []
    },
    {
      "type": "error",
      "name": "LiquidityOverflow1",
      "inputs": []
    },
    {
      "type": "error",
      "name": "MarketMigrated",
      "inputs": []
    },
    {
      "type": "error",
      "name": "OnlyFactory",
      "inputs": []
    },
    {
      "type": "error",
      "name": "ReentrantCall",
      "inputs": []
    },
    {
      "type": "error",
      "name": "SafeERC20FailedOperation",
      "inputs": [
        {
          "name": "token",
          "type": "address",
          "internalType": "address"
        }
      ]
    },
    {
      "type": "error",
      "name": "SameTokens",
      "inputs": []
    },
    {
      "type": "error",
      "name": "Uint127Overflow",
      "inputs": []
    },
    {
      "type": "error",
      "name": "ZeroDeltaAmount",
      "inputs": []
    }
  ],
  "bytecode": {
    "object": "0x610160346200039857601f6200211c38819003918201601f1916830191906001600160401b038311848410176200039d578160c0928592604095865283398101031262000398576200005182620003b3565b916200006060208201620003b3565b918082015160608301519060a060808501519401519485851015620003875784159687801562000376575b620003655760805260a0526101009584875261012095808752838301808411620002e157620000ba90620003c8565b956101409687528181029281840483141715620002e1578103908111620002e15760601b90828102928282158284870414170215620002f75750509004905b845160016001607f1b0380820290821583830482141715620002e157828103818111620002e157849060601b930202928282158284870414170215620002655750509004905b801580156200025c575b6200024b57906200015e6200016792620003c8565b60c052620003c8565b60e052600180546001600160801b0319168117905551611d319390929084620003eb85396080518481816101f5015281816106ee0152610aec015260a05184818161027c0152818161051201528181610b870152610e2b015260c051848181610fa101528181611303015281816113ad01528181611611015261168c015260e051848181610fc4015281816111d8015281816112be0152818161150601526115db0152518381816105e401528181610a0401528181610c490152818161143801526116c6015251828181610a27015281816111a801526114d601525181610c780152f35b825163586f6a9560e01b8152600490fd5b50811562000149565b8290600019818409858110860190039209908260000383169281811115620002d357839004600281600302811880830282030280830282030280830282030280830282030280830282030280920290030293600184848303049480600003040192119003021702906200013f565b63ae47f7026000526004601cfd5b634e487b7160e01b600052601160045260246000fd5b8290600019818409858110860190039209908260000383169281811115620002d35783900460028160030281188083028203028083028203028083028203028083028203028083028203028092029003029360018484830304948060000304019211900302170290620000f9565b8451637995b04360e01b8152600490fd5b5060016001607f1b0387116200008b565b83516306b84ff560e11b8152600490fd5b600080fd5b634e487b7160e01b600052604160045260246000fd5b51906001600160a01b03821682036200039857565b6001607f1b811015620003d85790565b604051636e225a2160e01b8152600490fdfe608060408181526004918236101561001657600080fd5b600092833560e01c9182630902f1ac14610fea575081631e48ea0614610f6c57816329b0123714610f295781633419341c14610e4f5781634a64d67d14610de05781637a1ac61e14610b1057816388cc58e414610aa157816398acd7a614610a50578163a0b6ea01146109bb578163abb1db2a1461042a578163ce5494bb1461015757508063db8d55f1146101055763ee3af0db146100b457600080fd5b3461010157817ffffffffffffffffffffffffffffffffffffffffffffffffffffffffffffffffc360112610101576020906fffffffffffffffffffffffffffffffff600154169051908152f35b5080fd5b50903461015457807ffffffffffffffffffffffffffffffffffffffffffffffffffffffffffffffffc360112610154575060015463ffffffff825191818160801c16835260a01c166020820152f35b80fd5b90508234610154576020807ffffffffffffffffffffffffffffffffffffffffffffffffffffffffffffffffc3601126101015761019261103e565b916001549060018260c01c1461040257780100000000000000000000000000000000000000000000000077ffffffffffffffffffffffffffffffffffffffffffffffff8093161760015573ffffffffffffffffffffffffffffffffffffffff94857f00000000000000000000000000000000000000000000000000000000000000001633036103db57815460ff8160a01c166103b3578616948751967f70a08231000000000000000000000000000000000000000000000000000000009687895230848a01528689602481845afa9889156103a9578599610376575b50888381610365575b5050507f00000000000000000000000000000000000000000000000000000000000000001691885196875230908701528486602481855afa95861561035b578396610328575b50859081610317575b505050740100000000000000000000000000000000000000007fffffffffffffffffffffff00ffffffffffffffffffffffffffffffffffffffff825416179055600154166001558351928352820152f35b6103209261175a565b8684816102c6565b9095508481813d8311610354575b61034081836110c2565b81010312610350575194886102bd565b8280fd5b503d610336565b88513d85823e3d90fd5b61036e9261175a565b898883610277565b9098508681813d83116103a2575b61038e81836110c2565b8101031261039e5751978a61026e565b8480fd5b503d610384565b8a513d87823e3d90fd5b5086517f05576633000000000000000000000000000000000000000000000000000000008152fd5b86517f0c6d42ae000000000000000000000000000000000000000000000000000000008152fd5b8486517f37ed32e8000000000000000000000000000000000000000000000000000000008152fd5b9050346103505760807ffffffffffffffffffffffffffffffffffffffffffffffffffffffffffffffffc3601126103505761046361103e565b60243590811515820361039e57604435906001549360018560c01c1461099457780100000000000000000000000000000000000000000000000077ffffffffffffffffffffffffffffffffffffffffffffffff86161780600155831561096c5787549560ff8760a01c1661094457889493929161050a916fffffffffffffffffffffffffffffffff958663ffffffff808560a01c169460801c16921690606435908a611480565b9091939280987f0000000000000000000000000000000000000000000000000000000000000000936002549a8d8a8d169c60801c9d8460001461084f57509050879c828c039c8d9961055b9161170e565b986105659161170e565b9a73ffffffffffffffffffffffffffffffffffffffff918282541690518080927f70a08231000000000000000000000000000000000000000000000000000000008252308c8301525a92602491602094fa918215610842579161080c575b5088116107e457928c926105e18f979695938b61060995891661175a565b847f000000000000000000000000000000000000000000000000000000000000000091611157565b5090509490975b73ffffffffffffffffffffffffffffffffffffffff93828593519485528d602086015284015285606084015288608084015216907fe8f92b6d8befe44289e67ee6740a1b61cfea7bd8ebe8c2050c4ec7ef555d5fc560a03392a3826106d3575b5050505090829177ffffffffffffffff00000000000000000000000000000000937fffffffffffffffffffffffffffffffff000000000000000000000000000000006001549660801b169116176002551691161760015582519182526020820152f35b82918c8c926106eb610770979b60209784039061170e565b9a7f00000000000000000000000000000000000000000000000000000000000000009461071b878785881661175a565b51978896879586937f69e330ec00000000000000000000000000000000000000000000000000000000855284016020909392919373ffffffffffffffffffffffffffffffffffffffff60408201951681520152565b0393165af180156107da5777ffffffffffffffff000000000000000000000000000000009596979899506107ab575b88979695948180610670565b6107cc9060203d6020116107d3575b6107c481836110c2565b810190611132565b503861079f565b503d6107ba565b88513d8b823e3d90fd5b868e517fae965d5b000000000000000000000000000000000000000000000000000000008152fd5b90506020813d60201161083a575b81610827602093836110c2565b810103126108365751386105c3565b8f80fd5b3d915061081a565b90508f51903d90823e3d90fd5b9199969594509192506108758b988461086f9f9e9d039e8f91809f61170e565b9c61170e565b9773ffffffffffffffffffffffffffffffffffffffff92517f70a082310000000000000000000000000000000000000000000000000000000081523089820152602081602481878b165afa9182156108425791610912575b508b116108ea576108e1929186911661175a565b898b8294610610565b868e517f7642aaaa000000000000000000000000000000000000000000000000000000008152fd5b90506020813d60201161093c575b8161092d602093836110c2565b810103126108365751386108cd565b3d9150610920565b8288517f05576633000000000000000000000000000000000000000000000000000000008152fd5b5085517f14b2c6a2000000000000000000000000000000000000000000000000000000008152fd5b85517f37ed32e8000000000000000000000000000000000000000000000000000000008152fd5b50503461010157817ffffffffffffffffffffffffffffffffffffffffffffffffffffffffffffffffc36011261010157806f7fffffffffffffffffffffffffffffff60609251917f000000000000000000000000000000000000000000000000000000000000000083527f00000000000000000000000000000000000000000000000000000000000000006020840152820152f35b50503461010157817ffffffffffffffffffffffffffffffffffffffffffffffffffffffffffffffffc3601126101015773ffffffffffffffffffffffffffffffffffffffff60209254169051908152f35b50503461010157817ffffffffffffffffffffffffffffffffffffffffffffffffffffffffffffffffc360112610101576020905173ffffffffffffffffffffffffffffffffffffffff7f0000000000000000000000000000000000000000000000000000000000000000168152f35b9050346103505760607ffffffffffffffffffffffffffffffffffffffffffffffffffffffffffffffffc36011261035057610b4961103e565b6001546fffffffffffffffffffffffffffffffff9290602435604435858316610db85773ffffffffffffffffffffffffffffffffffffffff809516947f0000000000000000000000000000000000000000000000000000000000000000168514610d9057620f4240808311908115610d86575b50610d5e5791610cf2939173ffffffff0000000000000000000000000000000077ffffffff0000000000000000000000000000000000000000602095887fffffffffffffffffffffffff00000000000000000000000000000000000000008d5416178c5560a01b16927fffffffffffffffff000000000000000000000000000000000000000000000000897f0000000000000000000000000000000000000000000000000000000000000000169116179160801b1617176001557f00000000000000000000000000000000000000000000000000000000000000009384918888518096819582947f40c10f19000000000000000000000000000000000000000000000000000000008452309084016020909392919373ffffffffffffffffffffffffffffffffffffffff60408201951681520152565b03925af18015610d545760209550610d37575b50167fffffffffffffffffffffffffffffffff0000000000000000000000000000000060025416176002555160018152f35b610d4d90853d87116107d3576107c481836110c2565b5038610d05565b84513d87823e3d90fd5b8387517f58d620b3000000000000000000000000000000000000000000000000000000008152fd5b9050811138610bbc565b8387517f3445e17c000000000000000000000000000000000000000000000000000000008152fd5b8387517f0dc149f0000000000000000000000000000000000000000000000000000000008152fd5b50503461010157817ffffffffffffffffffffffffffffffffffffffffffffffffffffffffffffffffc360112610101576020905173ffffffffffffffffffffffffffffffffffffffff7f0000000000000000000000000000000000000000000000000000000000000000168152f35b839150346101015760607ffffffffffffffffffffffffffffffffffffffffffffffffffffffffffffffffc3601126101015780359081151582036103505760ff835460a01c16610f025750610ed160015463ffffffff906fffffffffffffffffffffffffffffffff828260a01c16928260801c16911660443560243586611480565b509291509250600014610ef357610ee790611066565b82519182526020820152f35b610efc90611066565b90610ee7565b83517f05576633000000000000000000000000000000000000000000000000000000008152fd5b50503461010157817ffffffffffffffffffffffffffffffffffffffffffffffffffffffffffffffffc3601126101015760ff6020925460a01c1690519015158152f35b82843461015457807ffffffffffffffffffffffffffffffffffffffffffffffffffffffffffffffffc360112610154575080517f000000000000000000000000000000000000000000000000000000000000000081527f00000000000000000000000000000000000000000000000000000000000000006020820152f35b8390853461015457807ffffffffffffffffffffffffffffffffffffffffffffffffffffffffffffffffc36011261015457506002546fffffffffffffffffffffffffffffffff8116825260801c6020820152f35b6004359073ffffffffffffffffffffffffffffffffffffffff8216820361106157565b600080fd5b7f800000000000000000000000000000000000000000000000000000000000000081146110935760000390565b7f4e487b7100000000000000000000000000000000000000000000000000000000600052601160045260246000fd5b90601f7fffffffffffffffffffffffffffffffffffffffffffffffffffffffffffffffe0910116810190811067ffffffffffffffff82111761110357604052565b7f4e487b7100000000000000000000000000000000000000000000000000000000600052604160045260246000fd5b90816020910312611061575180151581036110615790565b9190820180921161109357565b92939092801561145e57848310801590611435575b61140b577001000000000000000000000000000000006f80000000000000000000000000000000850110156113e15783156113d55761121490847f000000000000000000000000000000000000000000000000000000000000000096878110908115806000146113ab577f0000000000000000000000000000000000000000000000000000000000000000926000955b15611399575080611390575b15611389578890611851565b91908295938198839582996000808213600014611335575061123e611239888861114a565b61199d565b906000828203921281831281169183139015161761109357915b8215158061132b575b61128f575b5050505050505061128261127d846112889361114a565b6119d0565b946119d0565b9293929190565b611282969b5061127d959a506112f69499506112889750926112f0926112e6926112f0958111600014611301577f000000000000000000000000000000000000000000000000000000000000000090600093611851565b949190929b61114a565b9861114a565b949238808080611266565b7f000000000000000000000000000000000000000000000000000000000000000090600093611851565b5081841415611261565b61133e8661199d565b9181838201938412911290801582169115161761135c575091611258565b807f4e487b7100000000000000000000000000000000000000000000000000000000602492526011600452fd5b8690611851565b50888710611208565b90508015611208575088871015611208565b7f0000000000000000000000000000000000000000000000000000000000000000926000956111fc565b50600092508291508190565b60046040517fc79d2997000000000000000000000000000000000000000000000000000000008152fd5b60046040517f9cc3dd4a000000000000000000000000000000000000000000000000000000008152fd5b507f0000000000000000000000000000000000000000000000000000000000000000831061116c565b848311158061116c57506f7fffffffffffffffffffffffffffffff831161116c565b95929094939195806000146116ec578187108015906116c3575b61140b577001000000000000000000000000000000006f80000000000000000000000000000000870110156113e15785156116b35761154190867f0000000000000000000000000000000000000000000000000000000000000000938481109081158060001461168a577f0000000000000000000000000000000000000000000000000000000000000000928a955b1561167857508061166f575b15611668578590611851565b93849391929397839a8597849b600080821360001461164157506115686112398a8a61114a565b906000828203921281831281169183139015161761109357935b84151580611637575b6115a9575b50505050505050505061128261127d846112889361114a565b611282989d5061127d979c50611601969b506112889950926112f095926112f095926112e695821160001461160e57507f00000000000000000000000000000000000000000000000000000000000000009193611851565b9492388080808080611590565b937f00000000000000000000000000000000000000000000000000000000000000009250611851565b508286141561158b565b61164a8861199d565b9181838201938412911290801582169115161761135c575093611582565b8a90611851565b50858b10611535565b905080156115355750858b1015611535565b7f0000000000000000000000000000000000000000000000000000000000000000928895611529565b5094506000935083925082919050565b507f0000000000000000000000000000000000000000000000000000000000000000871061149a565b818711158061149a57506f7fffffffffffffffffffffffffffffff871161149a565b9190700100000000000000000000000000000000908301928317101561173057565b60046040517fa0a13196000000000000000000000000000000000000000000000000000000008152fd5b6040517fa9059cbb00000000000000000000000000000000000000000000000000000000602080830191825273ffffffffffffffffffffffffffffffffffffffff94909416602483015260448083019590955293815290926000916117c06064826110c2565b519082855af115611845576000513d61183c575073ffffffffffffffffffffffffffffffffffffffff81163b155b6117f55750565b60249073ffffffffffffffffffffffffffffffffffffffff604051917f5274afe7000000000000000000000000000000000000000000000000000000008352166004820152fd5b600114156117ee565b6040513d6000823e3d90fd5b949293909190828611908115611992576001916002945b60008813156118fd57620f42409083820391828a02049361188b87838d89611c5a565b91858311156118db57505050506118bf846118c89594938a936000146118cb576118b6908285611a15565b809a8b95611c5a565b80970394611bce565b91565b6118d6908285611a5b565b6118b6565b91995093506118c89594506118f7919992509889938902611ad0565b94611bce565b87929796959396156119815761191985828b8660000397611bce565b908482111561196b5750509161195893916119499360001461195b5761194090838a611a5b565b97889196611c5a565b9380620f424003908502611ad0565b90565b61196690838a611a15565b611940565b9890966119589561194995509350899250611c5a565b506000965086955085949350505050565b600291600194611868565b60008112156119585760046040517f17aa1725000000000000000000000000000000000000000000000000000000008152fd5b6f800000000000000000000000000000008110156119eb5790565b60046040517f6e225a21000000000000000000000000000000000000000000000000000000008152fd5b809160601b92028201906000821315611a315761195892611b9d565b60046040517f539732bc000000000000000000000000000000000000000000000000000000008152fd5b90809260601b9102016000811315611aa6578115611a77570490565b7f4e487b7100000000000000000000000000000000000000000000000000000000600052601260045260246000fd5b60046040517f88df2ca1000000000000000000000000000000000000000000000000000000008152fd5b908015611ae257808204910615150190565b6365244e4e6000526004601cfd5b82828202928181848604148415170215611b0b575050500490565b7fffffffffffffffffffffffffffffffffffffffffffffffffffffffffffffffff8184098481108501900392099060009284840385169482811115611b90578560019104600281600302811880830282030280830282030280830282030280830282030280830282030280920290030295808086850304960304019211900302170290565b63ae47f70285526004601cfd5b929190611bab828286611af0565b9309611bb357565b90600101908115611bc057565b63ae47f7026000526004601cfd5b92909280600214611c3857600114611c0f577f4e487b7100000000000000000000000000000000000000000000000000000000600052605160045260246000fd5b611958928281818111611c2d575b505082810292039060601b611af0565b935090503880611c1d565b5091908082818111611c4f575b5050030260601c90565b915091503880611c45565b92909280600214611cc457600114611c9b577f4e487b7100000000000000000000000000000000000000000000000000000000600052605160045260246000fd5b611958928281818111611cb9575b505082810292039060601b611b9d565b935090503880611ca9565b50916c01000000000000000000000000918082818111611cf0575b50500380830260601c920915150190565b915091503880611cdf56fea2646970667358221220a9a23987be7db5715ba58d3ba01022e264e1f135e852d9f7f26cd1c095084ddd64736f6c63430008180033",
    "linkReferences": {}
  },
  "methodIdentifiers": {
    "getBaseToken()": "98acd7a6",
    "getCurrentSqrtRatio()": "ee3af0db",
    "getDeltaAmounts(bool,int256,uint256)": "3419341c",
    "getFactory()": "88cc58e4",
    "getFees()": "db8d55f1",
    "getIsMigrated()": "29b01237",
    "getLiquidities()": "1e48ea06",
    "getQuoteToken()": "4a64d67d",
    "getReserves()": "0902f1ac",
    "getSqrtRatiosBounds()": "a0b6ea01",
    "initialize(address,uint256,uint256)": "7a1ac61e",
    "migrate(address)": "ce5494bb",
    "swap(address,bool,int256,uint256)": "abb1db2a"
  },
  "id": 55
}