{
  "abi": [
    {
      "type": "constructor",
      "inputs": [
        {
          "name": "factory_",
          "type": "address",
          "internalType": "address"
        }
      ],
      "stateMutability": "nonpayable"
    },
    {
      "type": "function",
      "name": "allowance",
      "inputs": [
        {
          "name": "owner",
          "type": "address",
          "internalType": "address"
        },
        {
          "name": "spender",
          "type": "address",
          "internalType": "address"
        }
      ],
      "outputs": [
        {
          "name": "",
          "type": "uint256",
          "internalType": "uint256"
        }
      ],
      "stateMutability": "view"
    },
    {
      "type": "function",
      "name": "approve",
      "inputs": [
        {
          "name": "spender",
          "type": "address",
          "internalType": "address"
        },
        {
          "name": "value",
          "type": "uint256",
          "internalType": "uint256"
        }
      ],
      "outputs": [
        {
          "name": "",
          "type": "bool",
          "internalType": "bool"
        }
      ],
      "stateMutability": "nonpayable"
    },
    {
      "type": "function",
      "name": "balanceOf",
      "inputs": [
        {
          "name": "account",
          "type": "address",
          "internalType": "address"
        }
      ],
      "outputs": [
        {
          "name": "",
          "type": "uint256",
          "internalType": "uint256"
        }
      ],
      "stateMutability": "view"
    },
    {
      "type": "function",
      "name": "decimals",
      "inputs": [],
      "outputs": [
        {
          "name": "",
          "type": "uint8",
          "internalType": "uint8"
        }
      ],
      "stateMutability": "view"
    },
    {
      "type": "function",
      "name": "getFactory",
      "inputs": [],
      "outputs": [
        {
          "name": "",
          "type": "address",
          "internalType": "address"
        }
      ],
      "stateMutability": "view"
    },
    {
      "type": "function",
      "name": "initialize",
      "inputs": [
        {
          "name": "name_",
          "type": "string",
          "internalType": "string"
        },
        {
          "name": "symbol_",
          "type": "string",
          "internalType": "string"
        }
      ],
      "outputs": [
        {
          "name": "",
          "type": "bool",
          "internalType": "bool"
        }
      ],
      "stateMutability": "nonpayable"
    },
    {
      "type": "function",
      "name": "mint",
      "inputs": [
        {
          "name": "to",
          "type": "address",
          "internalType": "address"
        },
        {
          "name": "amount",
          "type": "uint256",
          "internalType": "uint256"
        }
      ],
      "outputs": [
        {
          "name": "",
          "type": "bool",
          "internalType": "bool"
        }
      ],
      "stateMutability": "nonpayable"
    },
    {
      "type": "function",
      "name": "name",
      "inputs": [],
      "outputs": [
        {
          "name": "",
          "type": "string",
          "internalType": "string"
        }
      ],
      "stateMutability": "view"
    },
    {
      "type": "function",
      "name": "symbol",
      "inputs": [],
      "outputs": [
        {
          "name": "",
          "type": "string",
          "internalType": "string"
        }
      ],
      "stateMutability": "view"
    },
    {
      "type": "function",
      "name": "totalSupply",
      "inputs": [],
      "outputs": [
        {
          "name": "",
          "type": "uint256",
          "internalType": "uint256"
        }
      ],
      "stateMutability": "view"
    },
    {
      "type": "function",
      "name": "transfer",
      "inputs": [
        {
          "name": "to",
          "type": "address",
          "internalType": "address"
        },
        {
          "name": "value",
          "type": "uint256",
          "internalType": "uint256"
        }
      ],
      "outputs": [
        {
          "name": "",
          "type": "bool",
          "internalType": "bool"
        }
      ],
      "stateMutability": "nonpayable"
    },
    {
      "type": "function",
      "name": "transferFrom",
      "inputs": [
        {
          "name": "from",
          "type": "address",
          "internalType": "address"
        },
        {
          "name": "to",
          "type": "address",
          "internalType": "address"
        },
        {
          "name": "value",
          "type": "uint256",
          "internalType": "uint256"
        }
      ],
      "outputs": [
        {
          "name": "",
          "type": "bool",
          "internalType": "bool"
        }
      ],
      "stateMutability": "nonpayable"
    },
    {
      "type": "event",
      "name": "Approval",
      "inputs": [
        {
          "name": "owner",
          "type": "address",
          "indexed": true,
          "internalType": "address"
        },
        {
          "name": "spender",
          "type": "address",
          "indexed": true,
          "internalType": "address"
        },
        {
          "name": "value",
          "type": "uint256",
          "indexed": false,
          "internalType": "uint256"
        }
      ],
      "anonymous": false
    },
    {
      "type": "event",
      "name": "Initialized",
      "inputs": [
        {
          "name": "version",
          "type": "uint64",
          "indexed": false,
          "internalType": "uint64"
        }
      ],
      "anonymous": false
    },
    {
      "type": "event",
      "name": "Transfer",
      "inputs": [
        {
          "name": "from",
          "type": "address",
          "indexed": true,
          "internalType": "address"
        },
        {
          "name": "to",
          "type": "address",
          "indexed": true,
          "internalType": "address"
        },
        {
          "name": "value",
          "type": "uint256",
          "indexed": false,
          "internalType": "uint256"
        }
      ],
      "anonymous": false
    },
    {
      "type": "error",
      "name": "AlreadyMinted",
      "inputs": []
    },
    {
      "type": "error",
      "name": "ERC20InsufficientAllowance",
      "inputs": [
        {
          "name": "spender",
          "type": "address",
          "internalType": "address"
        },
        {
          "name": "allowance",
          "type": "uint256",
          "internalType": "uint256"
        },
        {
          "name": "needed",
          "type": "uint256",
          "internalType": "uint256"
        }
      ]
    },
    {
      "type": "error",
      "name": "ERC20InsufficientBalance",
      "inputs": [
        {
          "name": "sender",
          "type": "address",
          "internalType": "address"
        },
        {
          "name": "balance",
          "type": "uint256",
          "internalType": "uint256"
        },
        {
          "name": "needed",
          "type": "uint256",
          "internalType": "uint256"
        }
      ]
    },
    {
      "type": "error",
      "name": "ERC20InvalidApprover",
      "inputs": [
        {
          "name": "approver",
          "type": "address",
          "internalType": "address"
        }
      ]
    },
    {
      "type": "error",
      "name": "ERC20InvalidReceiver",
      "inputs": [
        {
          "name": "receiver",
          "type": "address",
          "internalType": "address"
        }
      ]
    },
    {
      "type": "error",
      "name": "ERC20InvalidSender",
      "inputs": [
        {
          "name": "sender",
          "type": "address",
          "internalType": "address"
        }
      ]
    },
    {
      "type": "error",
      "name": "ERC20InvalidSpender",
      "inputs": [
        {
          "name": "spender",
          "type": "address",
          "internalType": "address"
        }
      ]
    },
    {
      "type": "error",
      "name": "InvalidInitialization",
      "inputs": []
    },
    {
      "type": "error",
      "name": "NotInitializing",
      "inputs": []
    },
    {
      "type": "error",
      "name": "Unauthorized",
      "inputs": []
    },
    {
      "type": "error",
      "name": "ZeroAmount",
      "inputs": []
    }
  ],
  "bytecode": {
    "object": "0x60a034610106576001600160401b0390601f6115f738819003918201601f19168301918483118484101761010b578084926020946040528339810103126101065751906001600160a01b0382168203610106577ff0c57e16840df040f15088dc2f81fe391c3923bec73e23a9662efc9c229c6a009081549060ff8260401c166100f45780808316036100af575b836080526040516114d5908161012282396080518181816103380152610a210152f35b6001600160401b031990911681179091556040519081527fc7f505b2f371ae2175ee4913f4499e1f2633a7b5936321eed1cdaeb6115181d290602090a138808061008c565b60405163f92ee8a960e01b8152600490fd5b600080fd5b634e487b7160e01b600052604160045260246000fdfe608060408181526004918236101561001657600080fd5b600092833560e01c91826306fdde0314610fca57508163095ea7b314610e8657816318160ddd14610e2a57816323b872dd14610c24578163313ce56714610bea57816340c10f191461096b5781634cd88b76146103dc5750806370a082311461035c57806388cc58e4146102ee57806395d89b41146101aa578063a9059cbb1461015c5763dd62ed3e146100a957600080fd5b3461015857807ffffffffffffffffffffffffffffffffffffffffffffffffffffffffffffffffc36011261015857806020926100e3611160565b73ffffffffffffffffffffffffffffffffffffffff610149610103611188565b9273ffffffffffffffffffffffffffffffffffffffff166000527f52c63247e1f47db19d5ce0460030c497f067ca4cebf71ba98eeadabe20bace01602052604060002090565b91168252845220549051908152f35b5080fd5b503461015857807ffffffffffffffffffffffffffffffffffffffffffffffffffffffffffffffffc360112610158576020906101a3610199611160565b60243590336112e3565b5160018152f35b5090346102eb57807ffffffffffffffffffffffffffffffffffffffffffffffffffffffffffffffffc3601126102eb57815190807f52c63247e1f47db19d5ce0460030c497f067ca4cebf71ba98eeadabe20bace04805461020a81611290565b8086529260209260019280841690811561029d5750600114610246575b6102428789610238828a03836111ab565b51918291826110fa565b0390f35b815293507f46a2803e59a4de4e7a4c574b1243f25977ac4c77d5a1a4a609b5394cebb4a2aa5b83851061028a57505050508101602001610238826102423880610227565b805486860184015293820193810161026c565b9050610242989650879450602093506102389592507fffffffffffffffffffffffffffffffffffffffffffffffffffffffffffffff0091501682840152151560051b82010192943880610227565b80fd5b503461015857817ffffffffffffffffffffffffffffffffffffffffffffffffffffffffffffffffc360112610158576020905173ffffffffffffffffffffffffffffffffffffffff7f0000000000000000000000000000000000000000000000000000000000000000168152f35b50346101585760207ffffffffffffffffffffffffffffffffffffffffffffffffffffffffffffffffc360112610158578060209273ffffffffffffffffffffffffffffffffffffffff6103ad611160565b1681527f52c63247e1f47db19d5ce0460030c497f067ca4cebf71ba98eeadabe20bace00845220549051908152f35b83833461015857807ffffffffffffffffffffffffffffffffffffffffffffffffffffffffffffffffc3601126101585767ffffffffffffffff83358181116109675761042b903690860161121b565b9360243582811161096357610443903690830161121b565b937ff0c57e16840df040f15088dc2f81fe391c3923bec73e23a9662efc9c229c6a009283549560ff87871c1615938288169788158061095c575b6001809a149081610952575b159081610949575b506109215785897fffffffffffffffffffffffffffffffffffffffffffffffff000000000000000083161788556108ec575b506104cc611446565b6104d4611446565b88518381116108c0577f52c63247e1f47db19d5ce0460030c497f067ca4cebf71ba98eeadabe20bace03908061050a8354611290565b9b601f9c8d8111610853575b506020908d831160011461079b578892610790575b50507fffffffffffffffffffffffffffffffffffffffffffffffffffffffffffffffff828c1b9260031b1c19161790555b815192831161076457507f52c63247e1f47db19d5ce0460030c497f067ca4cebf71ba98eeadabe20bace04926105928454611290565b898111610706575b509782918960209a508a9284116001146106505792610645575b50507fffffffffffffffffffffffffffffffffffffffffffffffffffffffffffffffff82881b9260031b1c19161790555b6105f1575b5051908152f35b7fffffffffffffffffffffffffffffffffffffffffffffff00ffffffffffffffff81541690557fc7f505b2f371ae2175ee4913f4499e1f2633a7b5936321eed1cdaeb6115181d2838251848152a1836105ea565b0151905088806105b4565b91907fffffffffffffffffffffffffffffffffffffffffffffffffffffffffffffffe08a95168684527f46a2803e59a4de4e7a4c574b1243f25977ac4c77d5a1a4a609b5394cebb4a2aa935b8181106106ef575084116106b8575b505050811b0190556105e5565b01517fffffffffffffffffffffffffffffffffffffffffffffffffffffffffffffffff60f88460031b161c191690558880806106ab565b8284015185558b9690940193928c01928c0161069c565b8482527f46a2803e59a4de4e7a4c574b1243f25977ac4c77d5a1a4a609b5394cebb4a2aa8a80860160051c8201926020871061075b575b0160051c01905b818110610751575061059a565b8281558901610744565b9250819261073d565b8360416024927f4e487b7100000000000000000000000000000000000000000000000000000000835252fd5b015190508c8061052b565b907fffffffffffffffffffffffffffffffffffffffffffffffffffffffffffffffe08d941691858a527f2ae08a8e29253f69ac5d979a101956ab8f8d9d7ded63fa7a83b16fc47648eab0928a5b81811061083b57508411610804575b505050811b01905561055c565b01517fffffffffffffffffffffffffffffffffffffffffffffffffffffffffffffffff60f88460031b161c191690558c80806107f7565b8284015185558f9690940193602093840193016107e8565b9091508388527f2ae08a8e29253f69ac5d979a101956ab8f8d9d7ded63fa7a83b16fc47648eab08d80850160051c820192602086106108b7575b918e91869594930160051c01915b8281106108a9575050610516565b8a81558594508e910161089b565b9250819261088d565b6024856041847f4e487b7100000000000000000000000000000000000000000000000000000000835252fd5b7fffffffffffffffffffffffffffffffffffffffffffffff0000000000000000001668010000000000000001178655896104c3565b5086517ff92ee8a9000000000000000000000000000000000000000000000000000000008152fd5b9050158b610491565b303b159150610489565b508561047d565b8480fd5b8380fd5b905034610be657817ffffffffffffffffffffffffffffffffffffffffffffffffffffffffffffffffc360112610be6576109a3611160565b926024358015610bbe577f52c63247e1f47db19d5ce0460030c497f067ca4cebf71ba98eeadabe20bace0280549081610b965773ffffffffffffffffffffffffffffffffffffffff8651977f6ca51cd000000000000000000000000000000000000000000000000000000000895230878a01526020988981602481867f0000000000000000000000000000000000000000000000000000000000000000165afa908115610b8c578791610b52575b508233911603610b2a5716948515610afb57838301809311610acf5750558282527f52c63247e1f47db19d5ce0460030c497f067ca4cebf71ba98eeadabe20bace00855283822080548201905583519081527fddf252ad1be2c89b69c2b068fc378daa952ba7f163c4a11628f55a4df523b3ef908590a35160018152f35b8460116024927f4e487b7100000000000000000000000000000000000000000000000000000000835252fd5b602490858851917fec442f05000000000000000000000000000000000000000000000000000000008352820152fd5b8688517f82b42900000000000000000000000000000000000000000000000000000000008152fd5b90508981813d8311610b85575b610b6981836111ab565b81010312610b8157518281168103610b815738610a51565b8680fd5b503d610b5f565b89513d89823e3d90fd5b8486517fddefae28000000000000000000000000000000000000000000000000000000008152fd5b8284517f1f2a2005000000000000000000000000000000000000000000000000000000008152fd5b8280fd5b50503461015857817ffffffffffffffffffffffffffffffffffffffffffffffffffffffffffffffffc360112610158576020905160128152f35b905082346102eb5760607ffffffffffffffffffffffffffffffffffffffffffffffffffffffffffffffffc3601126102eb57610c5e611160565b610c66611188565b9160443593610cb48373ffffffffffffffffffffffffffffffffffffffff166000527f52c63247e1f47db19d5ce0460030c497f067ca4cebf71ba98eeadabe20bace01602052604060002090565b33835260205285822054907fffffffffffffffffffffffffffffffffffffffffffffffffffffffffffffffff8210610cf5575b6020876101a38888886112e3565b858210610de65773ffffffffffffffffffffffffffffffffffffffff841615610db7573315610d885750916101a3939186866020989795610d758573ffffffffffffffffffffffffffffffffffffffff166000527f52c63247e1f47db19d5ce0460030c497f067ca4cebf71ba98eeadabe20bace01602052604060002090565b3385528a52039120559193948193610ce7565b602490838851917f94280d62000000000000000000000000000000000000000000000000000000008352820152fd5b602490838851917fe602df05000000000000000000000000000000000000000000000000000000008352820152fd5b86517ffb8f41b20000000000000000000000000000000000000000000000000000000081523391810191825260208201929092526040810186905281906060010390fd5b50503461015857817ffffffffffffffffffffffffffffffffffffffffffffffffffffffffffffffffc360112610158576020907f52c63247e1f47db19d5ce0460030c497f067ca4cebf71ba98eeadabe20bace02549051908152f35b905034610be657817ffffffffffffffffffffffffffffffffffffffffffffffffffffffffffffffffc360112610be657610ebe611160565b602435903315610f9b5773ffffffffffffffffffffffffffffffffffffffff16918215610f6c57508083602095610f343373ffffffffffffffffffffffffffffffffffffffff166000527f52c63247e1f47db19d5ce0460030c497f067ca4cebf71ba98eeadabe20bace01602052604060002090565b8582528752205582519081527f8c5be1e5ebec7d5bd14f71427d1e84f3dd0314c0f7b2291e5b200ac8c7c3b925843392a35160018152f35b602490858551917f94280d62000000000000000000000000000000000000000000000000000000008352820152fd5b602483868651917fe602df05000000000000000000000000000000000000000000000000000000008352820152fd5b839085346102eb57807ffffffffffffffffffffffffffffffffffffffffffffffffffffffffffffffffc3601126102eb57807f52c63247e1f47db19d5ce0460030c497f067ca4cebf71ba98eeadabe20bace03805461102881611290565b808652926020926001928084169081156110ac5750600114611055576102428789610238828a03836111ab565b815293507f2ae08a8e29253f69ac5d979a101956ab8f8d9d7ded63fa7a83b16fc47648eab05b83851061109957505050508101602001610238826102428680610227565b805486860184015293820193810161107b565b9050610242989650879450602093506102389592507fffffffffffffffffffffffffffffffffffffffffffffffffffffffffffffff0091501682840152151560051b82010192948680610227565b60208082528251818301819052939260005b85811061114c575050507fffffffffffffffffffffffffffffffffffffffffffffffffffffffffffffffe0601f8460006040809697860101520116010190565b81810183015184820160400152820161110c565b6004359073ffffffffffffffffffffffffffffffffffffffff8216820361118357565b600080fd5b6024359073ffffffffffffffffffffffffffffffffffffffff8216820361118357565b90601f7fffffffffffffffffffffffffffffffffffffffffffffffffffffffffffffffe0910116810190811067ffffffffffffffff8211176111ec57604052565b7f4e487b7100000000000000000000000000000000000000000000000000000000600052604160045260246000fd5b81601f820112156111835780359067ffffffffffffffff82116111ec576040519261126e60207fffffffffffffffffffffffffffffffffffffffffffffffffffffffffffffffe0601f86011601856111ab565b8284526020838301011161118357816000926020809301838601378301015290565b90600182811c921680156112d9575b60208310146112aa57565b7f4e487b7100000000000000000000000000000000000000000000000000000000600052602260045260246000fd5b91607f169161129f565b9173ffffffffffffffffffffffffffffffffffffffff80841692831561141557169283156113e4576000908382527f52c63247e1f47db19d5ce0460030c497f067ca4cebf71ba98eeadabe20bace008060205260408320549184831061138b575082847fddf252ad1be2c89b69c2b068fc378daa952ba7f163c4a11628f55a4df523b3ef959360409388602097528652038282205586815220818154019055604051908152a3565b6040517fe450d38c00000000000000000000000000000000000000000000000000000000815273ffffffffffffffffffffffffffffffffffffffff91909116600482015260248101929092525060448101839052606490fd5b60246040517fec442f0500000000000000000000000000000000000000000000000000000000815260006004820152fd5b60246040517f96c6fd1e00000000000000000000000000000000000000000000000000000000815260006004820152fd5b60ff7ff0c57e16840df040f15088dc2f81fe391c3923bec73e23a9662efc9c229c6a005460401c161561147557565b60046040517fd7e6bcf8000000000000000000000000000000000000000000000000000000008152fdfea2646970667358221220d81f1edb695856ad4f216b5ebe737614e27053adc13e8c2d78893b507a36b4ac64736f6c63430008180033",
    "linkReferences": {}
  },
  "methodIdentifiers": {
    "allowance(address,address)": "dd62ed3e",
    "approve(address,uint256)": "095ea7b3",
    "balanceOf(address)": "70a08231",
    "decimals()": "313ce567",
    "getFactory()": "88cc58e4",
    "initialize(string,string)": "4cd88b76",
    "mint(address,uint256)": "40c10f19",
    "name()": "06fdde03",
    "symbol()": "95d89b41",
    "totalSupply()": "18160ddd",
    "transfer(address,uint256)": "a9059cbb",
    "transferFrom(address,address,uint256)": "23b872dd"
  },
  "id": 56
}